:100000000C9472000C94A6020C948F000C948F0038
:100010000C948F000C948F000C948F000C948F0024
:100020000C948F000C948F000C948F000C948F0014
:100030000C948F000C948F000C948F000C948F0004
:100040000C948F000C948F000C948F000C948F00F4
:100050000C948F000C948F000C948F000C948F00E4
:100060000C948F000C948F000C948F000C948F00D4
:100070000C948F000C948F000C948F000C948F00C4
:100080000C948F000C948F000C948F000C948F00B4
:100090000C948F000C948F000C948F000C948F00A4
:1000A0000C948F000C948F000C948F000C948F0094
:1000B0000C948F000C948F000C948F000C948F0084
:1000C0000C948F000C948F000C948F000C948F0074
:1000D0000C948F000C948F000C948F000C948F0064
:1000E0000C948F0011241FBECFEFD1E2DEBFCDBF35
:1000F00012E0A0E0B2E0E0EBF7E002C005900D9264
:10010000A032B107D9F722E0A0E2B2E001C01D920F
:10011000A132B207E1F70E94C9010C94D6030C94F6
:100120000000EAE0F1E080818F638083089523E09E
:1001300030E0EBE0F1E08081816080838FE39CE937
:100140000197F1F700C0000080818E7F808380815D
:10015000826080838FE39CE90197F1F700C0000083
:1001600080818D7F80838081846080838FE39CE9A0
:100170000197F1F700C0000080818B7F8083808130
:10018000886080838FE39CE90197F1F700C000004D
:100190008081877F80838081806180838FE39CE979
:1001A0000197F1F700C0000080818F7E80838081FD
:1001B000806280838FE39CE90197F1F700C0000023
:1001C0008FE39CE90197F1F700C0000080818F7DEB
:1001D00080838081806180838FE39CE90197F1F7C0
:1001E00000C0000080818F7E808380818860808352
:1001F0008FE39CE90197F1F700C000008081877FC1
:1002000080838081846080838FE39CE90197F1F78C
:1002100000C0000080818B7F80838081826080832A
:100220008FE39CE90197F1F700C0000080818D7F8A
:1002300080838081816080838FE39CE90197F1F75F
:1002400000C0000080818E7F80832150310909F039
:1002500072CF089580FF02C0439A01C0439881FF86
:1002600002C0449A01C0449882FF02C0459A01C06E
:10027000459883FF02C0469A01C0469884FF02C099
:10028000479A01C0479885FF02C0A09A01C0A09874
:1002900086FF02C0A19A01C0A198882314F45F9A36
:1002A00008955F9808950E942A0142984198409AC3
:1002B0008FE891E00197F1F700C0000040980895A1
:1002C00087B18FEF87B983B3836083BB579A409818
:1002D0002FEF83ED90E3215080409040E1F700C084
:1002E000000080E30E9453018FE39CE90197F1F73E
:1002F00000C0000088E30E94530180E10E94530186
:100300008CE00E94530181E00E94530186E00E942C
:10031000530108950E942A01429A4198409A8FE819
:1003200091E00197F1F700C0000040980895CF9345
:10033000DF9300D0CDB7DEB790E8998390EC9A8335
:10034000FE01E80FF11D61508081860F0E9453016C
:100350008FE891E00197F1F700C000000F900F9037
:10036000DF91CF9108950F931F93CF93FC0180816C
:10037000882359F08F01C0E00E948A01CF5FF80105
:10038000EC0FF11D80818111F7CFCF911F910F915B
:1003900008950E9491000E9460018FE39CE90197FB
:1003A000F1F700C0000061E081E00E94970180E168
:1003B00092E00E94B301EFEDFEE23197F1F700C049
:1003C000000081E00E9470030E942902FFEF27EAEB
:1003D00081E6F15020408040E1F700C0000081E05C
:1003E0000E9453010E94970078940E945802EFE304
:1003F000FCE93197F1F700C000000BE011E0EE24BA
:10040000E3940F2EFBE4FF2EF02DF80180818E2562
:1004100080830E9437028823E1F380E092E00E940B
:100420006E02C0E0D2E0888190E00E94DD02F88296
:10043000F5E3FA95F1F7000060E1CE010E94820237
:100440000E9444028823E1F360E387E00E944B02AC
:10045000DCCF549A209A5C98289AE898E9E6F0E074
:10046000808182608083E89A0E943503089580919C
:100470002002811107C028988FEF0E944003289A1C
:100480008074089580E0089528988FEF0E944003BB
:10049000289A80720895CF93C62F28988F71806212
:1004A0000E943B038C2F0E943B03289ACF91089512
:1004B00062E085E00E944B028FE891E00197F1F73E
:1004C00000C0000060E181E10E944B021092200216
:1004D0006BE480E00E944B025C9A0895CF93DF9317
:1004E000EC01289881E60E943B0340E1BE01CE0169
:1004F0000E945503289A60E487E00E944B02DF9136
:10050000CF9108951F93CF93DF93EC01162F809125
:1005100020028111FCCF5C9881E0809320026AE484
:1005200080E00E944B02289881EE0E943B03289AAB
:10053000289880EA0E943B03612FCE010E94460367
:10054000289A5C9ADF91CF911F9108951F920F9284
:100550000FB60F9211242F933F934F935F936F9396
:100560007F938F939F93AF93BF93EF93FF9380916C
:100570002002882389F028988FEF0E944003289A50
:1005800085E88A95F1F700005C986BE480E00E94B2
:100590004B025C9A10922002FF91EF91BF91AF91B4
:1005A0009F918F917F916F915F914F913F912F918B
:1005B0000F900FBE0F901F901895EF92FF920F9320
:1005C0001F93CF93DF93CDB7DEB7C054D1090FB6D9
:1005D000F894DEBF0FBECDBF8C01009789F120E0FB
:1005E00030E0EAE0F0E001C09701BF010E9479032A
:1005F000CB0179014FEFE41AF40A0097A9F7112310
:1006000024F4790182E0E80EF11C4AE0BE016F5F3C
:100610007F4FC8010E94A1031E141F046CF48E01B9
:100620000F5F1F4FE00EF11EF80181918F010E94B4
:1006300068030E151F05C1F78AE00E94680307C012
:100640004AE0BE016F5F7F4F0E94A103F5CFC05CFF
:10065000DF4F0FB6F894DEBF0FBECDBFDF91CF9155
:100660001F910F91FF90EF90089584B1876084B936
:1006700081E58CBD08958EBD0DB407FEFDCF0895B4
:100680008EBD0DB407FEFDCF8EB50895662361F0D3
:10069000FC019C01260F311D91919EBD0DB407FEFA
:1006A000FDCFE217F307C1F70895442381F0FC0161
:1006B000A62FB72F9C01240F311D91919EBD0DB423
:1006C00007FEFDCF9EB59D93E217F307B1F708959E
:1006D000E0ECF0E0908195FFFDCF8093C600089597
:1006E00098E19093C10096E09093C2008093C4007B
:1006F000089597FB072E16F4009407D077FD09D0D4
:100700000E948D0307FC05D03EF4909581959F4F84
:100710000895709561957F4F0895AA1BBB1B51E109
:1007200007C0AA1FBB1FA617B70710F0A61BB70B61
:10073000881F991F5A95A9F780959095BC01CD0106
:100740000895BB274A3031F4992322F4BDE29095F5
:1007500081959F4F0C94AD03BB27FB015527AA271A
:10076000880F991FAA1FA41710F0A41B839550513E
:10077000B9F7A05DAA3308F0A95DA193009779F7B6
:10078000B111B1931192CB010C94C603DC01FC01B1
:10079000672F71917723E1F7329704C07C916D93B5
:1007A00070836291AE17BF07C8F30895F894FFCF26
:1007B0000102000000000000000000000000000036
:1007C000496E697469616C697A696E672E2E2E00B4
:00000001FF
