:100000000C9472000C948F000C9412090C948F00C5
:100010000C944B0A0C948F000C9451090C948F0093
:100020000C948F000C948F000C948F000C948F0014
:100030000C948F000C948F000C948F000C948F0004
:100040000C948F000C948F000C948F000C948F00F4
:100050000C948F000C948F000C948F000C948F00E4
:100060000C948F000C948F000C948F000C948F00D4
:100070000C948F000C948F000C948F000C948F00C4
:100080000C94B3080C948F000C948F000C948F0088
:100090000C948F000C948F000C948F000C948F00A4
:1000A0000C948F000C948F000C948F000C948F0094
:1000B0000C948F000C948F000C948F000C948F0084
:1000C0000C948F000C948F000C948F000C948F0074
:1000D0000C948F000C948F000C948F000C948F0064
:1000E0000C948F0011241FBECFEFD1E2DEBFCDBF35
:1000F00012E0A0E0B2E0E0E2FBE102C005900D9268
:10010000AE3CB107D9F722E0AEECB2E001C01D92DF
:10011000AE3EB207E1F70E9459050C948E0D0C9487
:100120000000ECE7F0E0808180648083EAE7F0E0A3
:100130008081876880830895ECE7F0E09081987F64
:100140008770892B8083EAE7F0E080818064808378
:10015000808184FFFDCF209178008091790090E02C
:10016000982F882788279F72822B0895DF92EF921D
:10017000FF920F931F93CF93DF93E62EF12C1E1463
:100180001F04ACF4D82EC0E0D0E000E010E08D2DCC
:100190000E949C00080F191F8FE99FE00197F1F75B
:1001A00000C000002196CE15DF0589F702C000E0EF
:1001B00010E0C801B7010E94310DCB01DF91CF9152
:1001C0001F910F91FF90EF90DF900895EAE0F1E02A
:1001D00080818F638083519880818F7780836C9832
:1001E000089523E030E0EBE0F1E0808181608083DE
:1001F0008FE39CE90197F1F700C0000080818E7FBA
:1002000080838081826080838FE39CE90197F1F78E
:1002100000C0000080818D7F808380818460808326
:100220008FE39CE90197F1F700C0000080818B7F8C
:1002300080838081886080838FE39CE90197F1F758
:1002400000C000008081877F8083808180618083FF
:100250008FE39CE90197F1F700C0000080818F7E59
:1002600080838081806280838FE39CE90197F1F72E
:1002700000C000008FE39CE90197F1F700C0000087
:1002800080818F7D80838081806180838FE39CE982
:100290000197F1F700C0000080818F7E808380810C
:1002A000886080838FE39CE90197F1F700C000002C
:1002B0008081877F80838081846080838FE39CE955
:1002C0000197F1F700C0000080818B7F80838081DF
:1002D000826080838FE39CE90197F1F700C0000002
:1002E00080818D7F80838081816080838FE39CE922
:1002F0000197F1F700C0000080818E7F808321503C
:10030000310909F072CF0895982F613009F059C072
:10031000811109C0E9E6F0E08081816080838081FD
:100320008D7F8083ABC0813049F4E9E6F0E08081C5
:10033000846080838081877F8083A8C0823049F475
:10034000E9E6F0E080818061808380818F7D808319
:10035000A5C0833049F4E9E6F0E0808180648083C1
:1003600080818F778083A2C0843049F4EAE6F0E090
:1003700080818160808380818D7F80839FC0853074
:1003800049F4EAE6F0E08081846080838081877FA1
:1003900080839CC0863049F4EAE6F0E08081806189
:1003A000808380818F7D808399C0873009F0A3C0CE
:1003B000EAE6F0E080818064808380818F778083AB
:1003C00095C0611159C0811109C0E9E6F0E0808152
:1003D0008260808380818E7F80838DC0813049F4EC
:1003E000E9E6F0E080818860808380818B7F808374
:1003F00082C0823049F4E9E6F0E080818062808347
:1004000080818F7E808377C0833049F4E9E6F0E015
:1004100080818068808380818F7B80836CC0843002
:1004200049F4EAE6F0E080818260808380818E7FFB
:10043000808361C0853049F4EAE6F0E0808188601D
:10044000808380818B7F808356C0863049F4EAE6C2
:10045000F0E080818062808380818F7E80834BC0CA
:10046000873009F048C0EAE6F0E080818068808348
:1004700080818F7B80833FC0811106C0E9E6F0E078
:1004800080818360808337C0813031F4E9E6F0E019
:1004900080818C6080832FC0823031F4E9E6F0E007
:1004A00080818063808327C0833031F4E9E6F0E007
:1004B0008081806C80831FC0843031F4EAE6F0E0F4
:1004C00080818360808317C0853031F4EAE6F0E0F4
:1004D00080818C6080830FC0863031F4EAE6F0E0E2
:1004E00080818063808307C0873029F4EAE6F0E0EA
:1004F0008081806C80834DB321E030E0B90102C07F
:10050000660F771F9A95E2F7CB01842B8DBB089578
:10051000CF9381110AC080B190E002C09595879574
:100520006A95E2F7C82FC1707DC0813051F483B164
:1005300090E002C0959587956A95E2F7C82FC17043
:1005400071C0823051F486B190E002C095958795D4
:100550006A95E2F7C82FC17065C0833051F489B144
:1005600090E002C0959587956A95E2F7C82FC17013
:1005700059C0843051F48CB190E002C095958795B4
:100580006A95E2F7C82FC1704DC0853051F48FB124
:1005900090E002C0959587956A95E2F7C82FC170E3
:1005A00041C0863051F482B390E002C095958795A2
:1005B0006A95E2F7C82FC17035C0873059F4809131
:1005C000000190E002C0959587956A95E2F7C82FE3
:1005D000C17028C0883059F48091030190E002C0B6
:1005E000959587956A95E2F7C82FC1701BC0893031
:1005F00059F48091060190E002C0959587956A951F
:10060000E2F7C82FC1700EC08A3059F480910901F9
:1006100090E002C0959587956A95E2F7C82FC17062
:1006200001C0C0E08C2F90E00E94590A8C2FCF911E
:10063000089580FF02C0439A01C0439881FF02C021
:10064000449A01C0449882FF02C0459A01C045986F
:1006500083FF02C0469A01C0469884FF02C0479AB1
:1006600001C0479885FF02C0A09A01C0A09886FFEC
:1006700002C0A19A01C0A198882314F45F9A08953A
:100680005F9808950E94190342984198409A8FE814
:1006900091E00197F1F700C000004098089587B1FC
:1006A0008FEF87B983B3836083BB579A40982FEF4E
:1006B00083ED90E3215080409040E1F700C00000BE
:1006C00080E30E9442038FE39CE90197F1F700C0A9
:1006D000000088E30E94420380E10E9442038CE014
:1006E0000E94420381E00E94420386E00E9442038E
:1006F00008950E941903429A4198409A8FE891E028
:100700000197F1F700C0000040980895CF93DF9360
:1007100000D0CDB7DEB790E8998390EC9A83FE01C4
:10072000E80FF11D61508081860F0E9442038FE81F
:1007300091E00197F1F700C000000F900F90DF915A
:10074000CF9108950F931F93CF93FC01808188234D
:1007500059F08F01C0E00E947903CF5FF801EC0FE0
:10076000F11D80818111F7CFCF911F910F910895D5
:10077000CF93DF93CDB7DEB760970FB6F894DEBFA7
:100780000FBECDBFFC01009741F02AE030E0B90177
:100790000E94310DCB010097D1F74AE0BE016F5F97
:1007A0007F4FCF010E94590DCE0101960E94A203F6
:1007B00060960FB6F894DEBF0FBECDBFDF91CF912C
:1007C0000895BC01990F880B990B0E940F0C2CEE19
:1007D00031E548EB5FE30E94C40C20E030E040EEDE
:1007E00050E40E94F30A0E94D70BAB019B012D5CE1
:1007F000314029353105C8F0673222E072072CF00C
:100800004D5E5140440F551F12C06C3C21E07207F1
:1008100074F42DEE31E0C901861B970B91958195FB
:100820009109AC01440F551F02C040E050E0CA01DD
:10083000493E534014F088EE93E00895CF92DF9242
:10084000EF92FF922CEE31E548EB5FE30E94C40C7F
:1008500020E030E040EE50E40E94F30A6B017C019E
:1008600020E030E849E054E40E94600B88235CF407
:1008700020E030E046EE53E4C701B6010E94BF0C11
:1008800018160CF45CC020E030E849E054E4C701DD
:10089000B6010E94BF0C1816ACF420E030E846EF19
:1008A00053E4C701B6010E94F30A9B01AC010E9408
:1008B000F40A2AE939E941EB51E40E94650B6B0126
:1008C0007C0120C020E030E046EE53E4C701B601D1
:1008D0000E94600B8823B4F4A701960160E070E8E1
:1008E00086EF93E40E94F30A20E030E040E050EC11
:1008F0000E94C40C2AE939E941EB51E40E94650BDE
:100900006B017C0120E030E04AE754E4C701B60106
:100910000E94BF0C1816BCF020E030E04AE754EC0F
:10092000C701B6010E94600B8823ACF40F2EC12CC6
:10093000D12CFAE7EF2EF4ECFF2EF02D0CC0C12CD9
:10094000D12C760108C00F2EC12CD12CFAE7EF2E46
:10095000F4E4FF2EF02DC701B6010E94D70BCB01A6
:10096000FF90EF90DF90CF90089563E085E00E94C4
:10097000B600BC01990F880B990B0E940F0C20E068
:1009800030E849E854E40E94650B6093DE027093FE
:10099000DF028093E0029093E102089561E081E03C
:1009A0000E9486038AE092E00E94A20367E081E051
:1009B0000E9486038EEB92E00E94A2036AE081E02F
:1009C0000E9486038EEB92E00E94A20361E082E027
:1009D0000E9486038FE092E00E94A20367E082E01B
:1009E0000E9486038EEB92E00E94A2036AE082E0FE
:1009F0000E9486038EEB92E00E94A20365E081E0F4
:100A00000E9486038091DC0290E00E94B80368E0B7
:100A100081E00E9486038091DB0290E00E94B8038F
:100A20006BE081E00E9486038091DA0290E00E94F0
:100A3000B8038EE792E00E94A20365E082E00E9484
:100A400086038091D90290E00E94B80368E082E0BA
:100A50000E9486038091D80290E00E94B8036BE068
:100A600082E00E9486038091D70290E00E94B80342
:100A70008AE792E00E94A2030895E1E8F0E0808115
:100A8000846080830895E0E9F0E08081806880835D
:100A9000E1E9F0E080818D60808380E19AE79093C6
:100AA000990080939800E1E7F0E080818260808384
:100AB00008950E94E60060E081E00E94840160E009
:100AC00085E00E9484010E943D050E9443050E942A
:100AD0004F030E9491008FE39CE90197F1F700C05A
:100AE000000061E081E00E94860384E192E00E94C0
:100AF000A203EFEDFEE23197F1F700C0000081E0C4
:100B00000E94EA0A0E94670981E00E9442030E9453
:100B1000F1000E94A70985E092E00E94170A80E098
:100B200092E00E940F0A8FE39CE90197F1F700C061
:100B3000000081E00E944203EFEDFEE23197F1F701
:100B400000C0000061E081E00E94860384E292E040
:100B50000E94A203FFEF23ED80E3F150204080408C
:100B6000E1F700C00000789481E00E944203EFEDBD
:100B7000FEE23197F1F700C0000061E081E00E94E1
:100B8000860385E392E00E94A2030F2EFBE0EF2E86
:100B9000FF24F394F02D0AEE12E00F2EF2EEAF2EAA
:100BA000F2E0BF2EF02DC4E8D0E06894992492F8CA
:100BB0000F2EFDE22F2E312CF02D0F2EFFE48F2E65
:100BC000F02D8091D602833320F01092D6020E943D
:100BD000A7098091CE02811119C08091D202882389
:100BE00009F453C08091D10281114FC061E081E0CE
:100BF0000E94860383E492E00E94A20361E082E007
:100C00000E94860381E592E00E94A2038091CE02B9
:100C10008130D9F58091D002811111C061E081E06D
:100C20000E94860381E692E00E94A20361E082E0D6
:100C30000E9486038FE692E00E94A20326C0809164
:100C4000D302882331F08091D10281111EC00E940D
:100C5000CE048091D2028823C1F08091D10281110B
:100C600014C08091D302811110C061E081E00E9424
:100C7000860380E892E00E94A20361E082E00E9485
:100C800086038EE892E00E94A2038091D4029091A4
:100C9000D50201969093D5028093D402F7019081FA
:100CA00081E0892780838091D00281113AC08091B0
:100CB000CF02811147C281E08093CF028EE4F80118
:100CC000808363E0C8010E94270AF5E3FA95F1F7F3
:100CD00000001982188212C088819981893B9B404B
:100CE00068F081E08093DD028091D6028F5F80936F
:100CF000D602F70180818925808304C00E94820981
:100D0000882351F38091DD02811106C081E0809338
:100D1000D2021092D10205C01092DD0281E08093D0
:100D2000D1028091D0028130D1F58091CF02811122
:100D300002C281E08093CF0289E5F801808363E0FD
:100D4000C8010E94270AF5E3FA95F1F7000019821D
:100D5000188212C088819981893B9B4068F081E0AC
:100D60008093DD028091D6028F5F8093D602F701D7
:100D700080818925808304C00E948209882351F3E1
:100D80008091DD02811106C081E08093D202109231
:100D9000D10205C01092DD0281E08093D1028091E2
:100DA000D4029091D502C29709F071C08091D0020F
:100DB000882309F4DFC021E4F801208363E0C8013F
:100DC0000E94270A1982188212C088819981893B62
:100DD0009B4068F081E08093DD028091D6028F5FB6
:100DE0008093D602F70180818925808304C00E9408
:100DF0008209882351F38091DD02811146C00E944F
:100E000096091982188214C088819981893B9B4078
:100E100078F081E08093DD028091D6028F5F80932D
:100E2000D602F7018081F0E28F27F701808304C0AA
:100E30000E947509882341F38091DD02811120C051
:100E4000C8010E94E809F80180818823B1F091E08F
:100E50009093D3028093DC0281818093DB028281B4
:100E6000F9E28F9F812D112482958F702CE3829F50
:100E7000802D11248093DA020AC01092D30207C099
:100E80001092D3021092DD0202C01092DD02809116
:100E9000D4029091D5028536910508F46BC08091FB
:100EA000D002882309F466C01092D5021092D402B1
:100EB000F801808263E0C8010E94270A1982188223
:100EC00012C088819981893B9B4068F081E08093C2
:100ED000DD028091D6028F5F8093D602F701808178
:100EE0008925808304C00E948209882351F3809160
:100EF000DD0281113CC00E9496091982188214C03B
:100F000088819981893B9B4078F081E08093DD0264
:100F10008091D6028F5F8093D602F7018081F0E244
:100F20008F27F701808304C00E947509882341F34D
:100F30008091DD02811118C0C8010E94E809F80102
:100F400080818093D90281818093D8028281F9E2E5
:100F50008F9F812D112482958F702CE3829F802D8D
:100F600011248093D702E0C01092DD02DDC0109200
:100F7000DD02DAC00E94B50465E083E00E94B6009D
:100F80006C016091E6027091E702072E000C880B5D
:100F9000990B0E940F0C20E030E040E85EE30E94D5
:100FA000C40C2B013C01B601DD0C880B990B0E948F
:100FB0000F0C20E030E040E45FE30E94C40C9B0192
:100FC000AC01C301B2010E94F40A0E94D70B7093D6
:100FD000E7026093E602CB010E94E103BC01990F96
:100FE000880B990B0E940F0C2091DE023091DF02DA
:100FF0004091E0025091E1020E94C40C0E94D70B84
:101000006093E8027093E902F8017083618365E000
:1010100082E00E94B6006C016091E4027091E502EA
:10102000072E000C880B990B0E940F0C20E030E07B
:1010300040E85EE30E94C40C2B013C01B601DD0CCC
:10104000880B990B0E940F0C20E030E040E45FE336
:101050000E94C40C9B01AC01C301B2010E94F40ABE
:101060000E94D70B7093E5026093E402072E000CF8
:10107000880B990B0E940F0C0E941E049C012C5F90
:101080003F4F2930310528F41092E3021092E2021A
:1010900017C08E3291052CF03092E3022092E202CA
:1010A0000FC0833DFFEF9F072CF09093E3028093E6
:1010B000E20206C083ED9FEF9093E3028093E20289
:1010C000F5018081F801828363E0C8010E94270A4C
:1010D000F5E3FA95F1F700001982188212C08881B1
:1010E0009981893B9B4068F081E08093DD0280918B
:1010F000D6028F5F8093D602F70180818925808395
:1011000004C00E948209882351F38091DD0281117D
:1011100006C081E08093D2021092D10205C01092E5
:10112000DD0281E08093D1028FE39CE90197F1F722
:1011300000C0000046CD8091D4029091D502C297A4
:1011400049F439CE8091D4029091D502C29709F02A
:101150009ECE10CF8091D4029091D5028536910514
:1011600008F0A2CE07CF1F920F920FB60F92112454
:101170002F933F934F935F936F937F938F939F939F
:10118000AF93BF93EF93FF938091D2028823C9F16D
:101190006EE081E00E9486038091D602811105C035
:1011A0008FE992E00E94A2032AC09FEF980F92302D
:1011B00028F483EA92E00E94A20321C09DEF980FD9
:1011C000933028F487EA92E00E94A20318C0865068
:1011D000843028F48BEA92E00E94A20310C061E000
:1011E00081E00E9486038FEA92E00E94A20361E000
:1011F00082E00E94860380EC92E00E94A20310929B
:10120000D602FF91EF91BF91AF919F918F917F9106
:101210006F915F914F913F912F910F900FBE0F9063
:101220001F9018951F920F920FB60F9211242F93B3
:101230003F934F935F936F937F938F939F93AF935E
:10124000BF93EF93FF9367E08AE00E9488028823B0
:1012500031F08091CE028F5F8093CE0205C08091E5
:10126000CE0281508093CE028091CE0282301CF05B
:101270001092CE0205C088231CF481E08093CE0238
:10128000FF91EF91BF91AF919F918F917F916F915E
:101290005F914F913F912F910F900FBE0F901F9034
:1012A00018951F920F920FB60F9211248F939F9350
:1012B0001092CF029091D00281E089278093D002D2
:1012C0009F918F910F900FBE0F901F901895549A79
:1012D000209A5C98289AEA98E9E6F0E0808180629A
:1012E0008083EA9A0E94AF0A08958091ED028111ED
:1012F00007C028988FEF0E94BA0A289A8074089530
:1013000080E0089528988FEF0E94BA0A289A807288
:101310000895CF93C62F28988F7180620E94B50AD6
:101320008C2F0E94B50A289ACF9108951092ED0251
:1013300060E787E00E948909289881EE0E94B50A3B
:10134000289A6BE580E00E9489095C9A08956CE612
:1013500085E00E9489096FEF84E00E94890960E0BE
:1013600081E10E94890963E082E10E94890960E0CD
:1013700083E10E94890960E084E10E94890960E0BC
:1013800085E10E94890960E086E10E94890966E2A0
:1013900086E00E94890963E081E00E94890963E098
:1013A00082E00E9489096FE484E00E94890910921A
:1013B000ED0260E787E00E948909289881EE0E948B
:1013C000B50A289A6BE580E00E9489095C9A089525
:1013D000CF93DF93EC01289881E60E94B50A43E0A1
:1013E000BE01CE010E94CF0A289A60E487E00E94E5
:1013F0008909DF91CF9108951F93CF93DF93EB017C
:10140000142F28988F7180620E94B50A612FCE0137
:101410000E94C00A289ADF91CF911F9108955C988D
:1014200045E0BC018BE00E94FC095C9A0895CF93D3
:10143000DF93EC0145E0BC018AE00E94FC0945E035
:10144000BE0180E10E94FC09DF91CF9108951F93B6
:10145000CF93DF93EC01162F5C9881E08093ED022F
:101460006AE580E00E948909289881EE0E94B50A09
:10147000289A60E787E00E948909289880EA0E94FC
:10148000B50A612FCE010E94C00A289A5C9ADF91AA
:10149000CF911F9108951F920F920FB60F921124B2
:1014A0008F938091ED028F910F900FBE0F901F9040
:1014B0001895EF92FF920F931F93CF93DF93CDB7C1
:1014C000DEB7C054D1090FB6F894DEBF0FBECDBF52
:1014D0008C01009731F480E30E94E20AE12CF12CA8
:1014E00016C020E030E0EAE0F0E001C09701BF0163
:1014F0000E94310DCB0179014FEFE41AF40A0097F5
:10150000A9F7112324F4790182E0E80EF11C4AE0E6
:10151000BE016F5F7F4FC8010E94590D1E141F044A
:101520006CF48E010F5F1F4FE00EF11EF8018191E8
:101530008F010E94E20A0E151F05C1F78AE00E9482
:10154000E20AC05CDF4F0FB6F894DEBF0FBECDBF1E
:10155000DF91CF911F910F91FF90EF90089584B18B
:10156000876084B981E58CBD08958EBD0DB407FEFA
:10157000FDCF08958EBD0DB407FEFDCF8EB5089545
:10158000662361F0FC019C01260F311D91919EBDE7
:101590000DB407FEFDCFE217F307C1F7089544230A
:1015A00081F0FC01A62FB72F9C01240F311D9191D2
:1015B0009EBD0DB407FEFDCF9EB59D93E217F307C8
:1015C000B1F70895E0ECF0E0908195FFFDCF8093B6
:1015D000C600089598E19093C10096E09093C200F0
:1015E0008093C40008955058BB27AA270E940B0B74
:1015F0000C94850C0E94770C38F00E947E0C20F031
:1016000039F49F3F19F426F40C94740C0EF4E09511
:10161000E7FB0C946E0CE92F0E94960C58F3BA1756
:10162000620773078407950720F079F4A6F50C94F8
:10163000B80C0EF4E0950B2EBA2FA02D0B01B901BA
:1016400090010C01CA01A0011124FF27591B99F038
:10165000593F50F4503E68F11A16F040A22F232F44
:10166000342F4427585FF3CF469537952795A79594
:10167000F0405395C9F77EF41F16BA0B620B730B3B
:10168000840BBAF09150A1F0FF0FBB1F661F771FAC
:10169000881FC2F70EC0BA0F621F731F841F48F461
:1016A000879577956795B795F7959E3F08F0B0CFEA
:1016B0009395880F08F09927EE0F979587950895D1
:1016C0000E944A0C08F481E008950E94790B0C9462
:1016D000850C0E947E0C58F00E94770C40F029F493
:1016E0005F3F29F00C946E0C51110C94B90C0C94C2
:1016F000740C0E94960C68F39923B1F3552391F36F
:10170000951B550BBB27AA2762177307840738F070
:101710009F5F5F4F220F331F441FAA1FA9F335D0CD
:101720000E2E3AF0E0E832D091505040E695001C81
:10173000CAF72BD0FE2F29D0660F771F881FBB1F3B
:10174000261737074807AB07B0E809F0BB0B802D19
:10175000BF01FF2793585F4F3AF09E3F510578F045
:101760000C946E0C0C94B90C5F3FE4F3983ED4F3E8
:10177000869577956795B795F7959F5FC9F7880F19
:10178000911D9695879597F90895E1E0660F771F6B
:10179000881FBB1F621773078407BA0720F0621BFC
:1017A000730B840BBA0BEE1F88F7E09508950E9427
:1017B000DE0B6894B1110C94B90C08950E949E0C34
:1017C00088F09F5798F0B92F9927B751B0F0E1F002
:1017D000660F771F881F991F1AF0BA95C9F714C0B2
:1017E000B13091F00E94B80CB1E008950C94B80C9F
:1017F000672F782F8827B85F39F0B93FCCF38695EB
:1018000077956795B395D9F73EF490958095709547
:1018100061957F4F8F4F9F4F0895E89409C097FBC4
:101820003EF490958095709561957F4F8F4F9F4FB7
:101830009923A9F0F92F96E9BB279395F6958795FB
:1018400077956795B795F111F8CFFAF4BB0F11F4BE
:1018500060FF1BC06F5F7F4F8F4F9F4F16C0882365
:1018600011F096E911C0772321F09EE8872F762F9B
:1018700005C0662371F096E8862F70E060E02AF0DC
:101880009A95660F771F881FDAF7880F96958795C8
:1018900097F90895990F0008550FAA0BE0E8FEEF9D
:1018A00016161706E807F907C0F012161306E40724
:1018B000F50798F0621B730B840B950B39F40A261D
:1018C00061F0232B242B252B21F408950A2609F4FB
:1018D000A140A6958FEF811D811D089597F99F67FF
:1018E00080E870E060E008959FEF80EC08950024A8
:1018F0000A941616170618060906089500240A9475
:1019000012161306140605060895092E0394000CFA
:1019100011F4882352F0BB0F40F4BF2B11F460FF89
:1019200004C06F5F7F4F8F4F9F4F089557FD9058B2
:10193000440F551F59F05F3F71F04795880F97FB93
:10194000991F61F09F3F79F087950895121613064D
:101950001406551FF2CF4695F1DF08C0161617067C
:101960001806991FF1CF86957105610508940895B1
:10197000E894BB2766277727CB0197F908950E9443
:101980004A0C08F48FEF08950E94D70C0C94850C34
:101990000E94770C38F00E947E0C20F0952311F005
:1019A0000C946E0C0C94740C11240C94B90C0E94C1
:1019B000960C70F3959FC1F3950F50E0551F629FF1
:1019C000F001729FBB27F00DB11D639FAA27F00D98
:1019D000B11DAA1F649F6627B00DA11D661F829FBF
:1019E0002227B00DA11D621F739FB00DA11D621FA4
:1019F000839FA00D611D221F749F3327A00D611DC1
:101A0000231F849F600D211D822F762F6A2F1124A2
:101A10009F5750409AF0F1F088234AF0EE0FFF1FD5
:101A2000BB1F661F771F881F91505040A9F79E3F2C
:101A3000510580F00C946E0C0C94B90C5F3FE4F3EC
:101A4000983ED4F3869577956795B795F795E79582
:101A50009F5FC1F7FE2B880F911D9695879597F98B
:101A6000089597FB072E16F4009407D077FD09D050
:101A70000E94450D07FC05D03EF4909581959F4F3F
:101A80000895709561957F4F0895AA1BBB1B51E186
:101A900007C0AA1FBB1FA617B70710F0A61BB70BDE
:101AA000881F991F5A95A9F780959095BC01CD0183
:101AB0000895BB274A3031F4992322F4BDE2909572
:101AC00081959F4F0C94650DBB27FB015527AA27D5
:101AD000880F991FAA1FA41710F0A41B83955051BB
:101AE000B9F7A05DAA3308F0A95DA193009779F733
:101AF000B111B1931192CB010C947E0DDC01FC016C
:101B0000672F71917723E1F7329704C07C916D9331
:101B100070836291AE17BF07C8F30895F894FFCFA2
:101B2000D7D7D7D7D7E7E7E7E7E74C41543A004C98
:101B30004F4E3A00496E697469616C697A696E67E3
:101B40002E2E2E00496E697469616C697A61746920
:101B50006F6E2020004E4F20434F4E4E4543544958
:101B60004F4E00436F6E6E656374656420202020C5
:101B7000005350454544203D202020202020202097
:101B800000475053204F4646202020202020002090
:101B90002020202020202020202020202020200065
:101BA000436F6E6E65637465642C2020200057615E
:101BB0006974696E67206F6E204750532020002A99
:101BC0002A2A002A2A20002A2020004F46460043C5
:101BD0004F4E4E454354494F4E204C4F53542C00CA
:0E1BE000524553455420445249564552000088
:00000001FF
