:100000000C9472000C9408030C948F000C948F00D5
:100010000C948F000C948F000C948F000C948F0024
:100020000C948F000C948F000C948F000C948F0014
:100030000C948F000C948F000C948F000C948F0004
:100040000C948F000C948F000C948F000C948F00F4
:100050000C948F000C948F000C948F000C948F00E4
:100060000C948F000C948F000C948F000C948F00D4
:100070000C948F000C948F000C948F000C948F00C4
:100080000C948F000C948F000C948F000C948F00B4
:100090000C948F000C948F000C948F000C948F00A4
:1000A0000C948F000C948F000C948F000C948F0094
:1000B0000C948F000C948F000C948F000C948F0084
:1000C0000C948F000C948F000C948F000C948F0074
:1000D0000C948F000C948F000C948F000C948F0064
:1000E0000C948F0011241FBECFEFD1E2DEBFCDBF35
:1000F00012E0A0E0B2E0EEE3F8E002C005900D925D
:10010000AA36B107D9F722E0AAE6B2E001C01D92F3
:10011000AB36B207E1F70E94F2010C941D040C9477
:100120000000EAE0F1E080818F638083089523E09E
:1001300030E0EBE0F1E08081816080838FE39CE937
:100140000197F1F700C0000080818E7F808380815D
:10015000826080838FE39CE90197F1F700C0000083
:1001600080818D7F80838081846080838FE39CE9A0
:100170000197F1F700C0000080818B7F8083808130
:10018000886080838FE39CE90197F1F700C000004D
:100190008081877F80838081806180838FE39CE979
:1001A0000197F1F700C0000080818F7E80838081FD
:1001B000806280838FE39CE90197F1F700C0000023
:1001C0008FE39CE90197F1F700C0000080818F7DEB
:1001D00080838081806180838FE39CE90197F1F7C0
:1001E00000C0000080818F7E808380818860808352
:1001F0008FE39CE90197F1F700C000008081877FC1
:1002000080838081846080838FE39CE90197F1F78C
:1002100000C0000080818B7F80838081826080832A
:100220008FE39CE90197F1F700C0000080818D7F8A
:1002300080838081816080838FE39CE90197F1F75F
:1002400000C0000080818E7F80832150310909F039
:1002500072CF089580FF02C0439A01C0439881FF86
:1002600002C0449A01C0449882FF02C0459A01C06E
:10027000459883FF02C0469A01C0469884FF02C099
:10028000479A01C0479885FF02C0A09A01C0A09874
:1002900086FF02C0A19A01C0A198882314F45F9A36
:1002A00008955F9808950E942A0142984198409AC3
:1002B0008FE891E00197F1F700C0000040980895A1
:1002C00087B18FEF87B983B3836083BB579A409818
:1002D0002FEF83ED90E3215080409040E1F700C084
:1002E000000080E30E9453018FE39CE90197F1F73E
:1002F00000C0000088E30E94530180E10E94530186
:100300008CE00E94530181E00E94530186E00E942C
:10031000530108950E942A01429A4198409A8FE819
:1003200091E00197F1F700C0000040980895CF9345
:10033000DF9300D0CDB7DEB790E8998390EC9A8335
:10034000FE01E80FF11D61508081860F0E9453016C
:100350008FE891E00197F1F700C000000F900F9037
:10036000DF91CF9108950F931F93CF93FC0180816C
:10037000882359F08F01C0E00E948A01CF5FF80105
:10038000EC0FF11D80818111F7CFCF911F910F915B
:100390000895CF93DF93CDB7DEB760970FB6F8948B
:1003A000DEBF0FBECDBFFC01009741F02AE030E078
:1003B000B9010E94C003CB010097D1F74AE0BE010A
:1003C0006F5F7F4FCF010E94E803CE0101960E942C
:1003D000B30160960FB6F894DEBF0FBECDBFDF91BC
:1003E000CF9108950E9491000E9460018FE39CE9E3
:1003F0000197F1F700C0000061E081E00E949701E1
:1004000080E192E00E94B301EFEDFEE23197F1F757
:1004100000C0000087E60E94B7030E94B602FFEF0B
:1004200027EA81E6F15020408040E1F700C000005B
:1004300081E00E9453010E94970078940E94DE029E
:1004400011E0CBE0D1E080E292E00E946503812FD1
:100450000E945301EFEDFEE23197F1F700C000007A
:10046000612F812F0E94970185E392E00E94B301E2
:100470008FED9EE20197F1F700C000000CC088816B
:10048000812788839FEFE1EEF4E09150E040F04057
:10049000E1F700C000000E94C402882381F3888134
:1004A0008160888380E092E00E94F40286E492E01A
:1004B0000E9442030F2EF0E0EF2EF2E0FF2EF02D0F
:1004C000F70180810E943F038CE20E943F0380E29B
:1004D0000E943F03F70181810E943F038AE00E944E
:1004E0003F03812F0E9453018FED9EE20197F1F7A8
:1004F00000C00000612F812F0E94970187E592E0E4
:100500000E94B301EFEDFEE23197F1F700C0000069
:10051000612F82E00E949701F701808190E00E94A4
:10052000C9018FED9EE20197F1F700C0000086E659
:1005300092E00E94B301EFEDFEE23197F1F700C0C7
:100540000000F701818190E00E94C9018FED9EE2D9
:100550000197F1F700C000009FEFE1EEF4E0915049
:10056000E040F040E1F700C000006DCF549A209ABF
:100570005C98289AE898E9E6F0E0808182608083C0
:10058000E89A0E948B03089580916A02811107C046
:1005900028988FEF0E949603289A8074089580E02F
:1005A0000895CF93C62F28988F7180620E9491037F
:1005B0008C2F0E949103289ACF91089562E085E0E4
:1005C0000E94D1028FE891E00197F1F700C000008E
:1005D00060E181E10E94D10210926A026BE480E046
:1005E0000E94D1025C9A0895CF93DF93EC01289882
:1005F00081E60E94910340E1BE01CE010E949C036E
:10060000289A60E487E00E94D102DF91CF9108959B
:100610001F920F920FB60F9211242F933F934F9377
:100620005F936F937F938F939F93AF93BF93EF935A
:10063000FF9380916A02882389F028988FEF0E94A7
:100640009603289A5C986BE480E00E94D1025C9A41
:1006500010926A0260E387E00E94D102FF91EF915D
:10066000BF91AF919F918F917F916F915F914F91CA
:100670003F912F910F900FBE0F901F9018950E94E1
:10068000AF0308950F931F93CF93DF93FC018081F5
:100690008A30B1F08B3361F413C089918A3081F0D4
:1006A0008B3371F00E94AF030C171D07B1F708C020
:1006B0008F010E94AF03E801219608531F4FEDCF31
:1006C000DF91CF911F910F9108950F931F93CF93B7
:1006D000DF938C01FC0180818A3069F08B3379F4DF
:1006E0000AC089918A3039F08B3329F00E94AF0318
:1006F0000C171D07B1F78AE00E94AF0307C00E94E4
:10070000AF03E801219608531F4FEBCFDF91CF9144
:100710001F910F91089584B1876084B981E58CBDE4
:1007200008958EBD0DB407FEFDCF08958EBD0DB4A6
:1007300007FEFDCF8EB50895442381F0FC01A62F5E
:10074000B72F9C01240F311D91919EBD0DB407FE62
:10075000FDCF9EB59D93E217F307B1F70895E0EC46
:10076000F0E0908195FFFDCF8093C600089598E159
:100770009093C10096E09093C2008093C4000895C6
:1007800097FB072E16F4009407D077FD09D00E943E
:10079000D40307FC05D03EF4909581959F4F0895B2
:1007A000709561957F4F0895AA1BBB1B51E107C04F
:1007B000AA1FBB1FA617B70710F0A61BB70B881FF1
:1007C000991F5A95A9F780959095BC01CD01089580
:1007D000BB274A3031F4992322F4BDE290958195EC
:1007E0009F4F0C94F403BB27FB015527AA27880FC2
:1007F000991FAA1FA41710F0A41B83955051B9F795
:10080000A05DAA3308F0A95DA193009779F7B11113
:10081000B1931192CB010C940D04DC01FC01672F04
:1008200071917723E1F7329704C07C916D937083C7
:0E0830006291AE17BF07C8F30895F894FFCF8A
:10083E0001020000000000000000000000000000A7
:10084E00496E697469616C697A696E672E2E2E0025
:10085E0057616974696E6720666F72206461746196
:10086E002E2E2E3B0057616974696E6720666F727B
:10087E00206461746100446174612072656365690E
:10088E007665643A203B004461746120726563654D
:0A089E00697665643A002C20000022
:00000001FF
