S01A00006E524632344C30315F41546D6567613634302E73726563C9
S11300000C9472000C9461030C948F000C948F0078
S11300100C948F000C948F000C948F000C948F0020
S11300200C948F000C948F000C948F000C948F0010
S11300300C948F000C948F000C948F000C948F0000
S11300400C948F000C948F000C948F000C948F00F0
S11300500C948F000C948F000C948F000C948F00E0
S11300600C948F000C948F000C948F000C948F00D0
S11300700C948F000C948F000C948F000C948F00C0
S11300800C948F000C948F000C948F000C948F00B0
S11300900C948F000C948F000C948F000C948F00A0
S11300A00C948F000C948F000C948F000C948F0090
S11300B00C948F000C948F000C948F000C948F0080
S11300C00C948F000C948F000C948F000C948F0070
S11300D00C948F000C948F000C948F000C948F0060
S11300E00C948F0011241FBECFEFD1E2DEBFCDBF31
S11300F012E0A0E0B2E0EAEBF8E002C005900D9255
S1130100AE36B107D9F722E0AEE6B2E001C01D92E7
S1130110AF36B207E1F70E94F2010C945B040C9431
S11301200000EAE0F1E080818F638083089523E09A
S113013030E0EBE0F1E08081816080838FE39CE933
S11301400197F1F700C0000080818E7F8083808159
S1130150826080838FE39CE90197F1F700C000007F
S113016080818D7F80838081846080838FE39CE99C
S11301700197F1F700C0000080818B7F808380812C
S1130180886080838FE39CE90197F1F700C0000049
S11301908081877F80838081806180838FE39CE975
S11301A00197F1F700C0000080818F7E80838081F9
S11301B0806280838FE39CE90197F1F700C000001F
S11301C08FE39CE90197F1F700C0000080818F7DE7
S11301D080838081806180838FE39CE90197F1F7BC
S11301E000C0000080818F7E80838081886080834E
S11301F08FE39CE90197F1F700C000008081877FBD
S113020080838081846080838FE39CE90197F1F788
S113021000C0000080818B7F808380818260808326
S11302208FE39CE90197F1F700C0000080818D7F86
S113023080838081816080838FE39CE90197F1F75B
S113024000C0000080818E7F80832150310909F035
S113025072CF089580FF02C0439A01C0439881FF82
S113026002C0449A01C0449882FF02C0459A01C06A
S1130270459883FF02C0469A01C0469884FF02C095
S1130280479A01C0479885FF02C0A09A01C0A09870
S113029086FF02C0A19A01C0A198882314F45F9A32
S11302A008955F9808950E942A0142984198409ABF
S11302B08FE891E00197F1F700C00000409808959D
S11302C087B18FEF87B983B3836083BB579A409814
S11302D02FEF83ED90E3215080409040E1F700C080
S11302E0000080E30E9453018FE39CE90197F1F73A
S11302F000C0000088E30E94530180E10E94530182
S11303008CE00E94530181E00E94530186E00E9428
S1130310530108950E942A01429A4198409A8FE815
S113032091E00197F1F700C0000040980895CF9341
S1130330DF9300D0CDB7DEB790E8998390EC9A8331
S1130340FE01E80FF11D61508081860F0E94530168
S11303508FE891E00197F1F700C000000F900F9033
S1130360DF91CF9108950F931F93CF93FC01808168
S1130370882359F08F01C0E00E948A01CF5FF80101
S1130380EC0FF11D80818111F7CFCF911F910F9157
S11303900895CF93DF93CDB7DEB760970FB6F89487
S11303A0DEBF0FBECDBFFC01009741F02AE030E074
S11303B0B9010E94FE03CB010097D1F74AE0BE01C8
S11303C06F5F7F4FCF010E942604CE0101960E94E9
S11303D0B30160960FB6F894DEBF0FBECDBFDF91B8
S11303E0CF9108950E9491000E9460018FE39CE9DF
S11303F00197F1F700C0000061E081E00E949701DD
S113040080E192E00E94B3018FED9EE20197F1F743
S113041000C0000087E60E94F5030E94E0029FEFFF
S113042027EA81E6915020408040E1F700C00000B7
S113043081E00E9453010E94970078940E940F0368
S11304408FE39CE90197F1F700C0000081E00E946E
S113045053018FED9EE20197F1F700C0000061E0C7
S113046081E00E94970180E292E00E94B3018FED47
S11304709EE20197F1F700C00000CBE0D1E011E06B
S11304800CC08881812788839FEF21EE84E09150FE
S113049020408040E1F700C000000E94EE02882363
S11304A081F3EBE0F1E080818160808380E092E081
S11304B00E94250381E00E9453018FED9EE2019783
S11304C0F1F700C0000061E081E00E94970181E340
S11304D092E00E94B3018FED9EE20197F1F700C014
S11304E0000061E082E00E949701C0E0D2E08881D0
S11304F090E00E94C9018FED9EE20197F1F700C0E0
S1130500000080E492E00E94B3018FED9EE2019727
S1130510F1F700C00000898190E00E94C9018FEDCD
S11305209EE20197F1F700C000009FEF23E284EF01
S1130530915020408040E1F700C0000083E08883B0
S113054084E0898381E00E9453018FED9EE201974C
S1130550F1F700C0000061E081E00E9497018FED97
S11305609EE20197F1F700C0000083E492E00E944C
S1130570B30195E39A95F1F7000060E1CE010E9482
S1130580390325E32A95F1F700000E94FB02882332
S1130590E1F360E387E00E94020361E082E00E94ED
S11305A097018FED9EE20197F1F700C0000083E50B
S11305B092E00E94B30195E39A95F1F70000FFCF12
S11305C0549A209A5C98289AE898E9E6F0E08081A9
S11305D082608083E89A0E94BA03089580916E0233
S11305E0811107C028988FEF0E94C503289A807450
S11305F0089580E0089528988FEF0E94C503289AF3
S113060080720895CF93C62F28988F7180620E94BC
S1130610C0038C2F0E94C003289ACF91089562E0F2
S113062085E00E9402038FE891E00197F1F700C092
S1130630000060E181E10E94020310926E026BE40B
S113064080E00E9402035C9A0895CF93DF93EC014B
S1130650289881E60E94C00340E1BE01CE010E94B9
S1130660DA03289A60E487E00E940203DF91CF91C5
S113067008951F93CF93DF93EC01162F8EE592E03C
S11306800E94940380916E028111FCCF5C9881E0FA
S113069080936E026AE480E00E940203289881EE4F
S11306A00E94C003289A289880EA0E94C003612F00
S11306B0CE010E94CB03289A5C9ADF91CF911F91BF
S11306C008951F920F920FB60F9211242F933F9308
S11306D04F935F936F937F938F939F93AF93BF9346
S11306E0EF93FF9380916E02882369F028988FEF2F
S11306F00E94C503289A5C986BE480E00E94020380
S11307005C9A10926E02FF91EF91BF91AF919F910D
S11307108F917F916F915F914F913F912F910F90A6
S11307200FBE0F901F9018950F931F93CF93DF93D5
S11307308C01FC0180818A3069F08B3379F40AC022
S113074089918A3039F08B3329F00E94ED030C171C
S11307501D07B1F78AE00E94ED0307C00E94ED0374
S1130760E801219608531F4FEBCFDF91CF911F91E2
S11307700F91089584B1876084B981E58CBD089593
S11307808EBD0DB407FEFDCF08958EBD0DB407FEDA
S1130790FDCF8EB50895662361F0FC019C01260F00
S11307A0311D91919EBD0DB407FEFDCFE217F307F5
S11307B0C1F70895442381F0FC01A62FB72F9C01B3
S11307C0240F311D91919EBD0DB407FEFDCF9EB542
S11307D09D93E217F307B1F70895E0ECF0E0908100
S11307E095FFFDCF8093C600089598E19093C100D2
S11307F096E09093C2008093C400089597FB072E5F
S113080016F4009407D077FD09D00E94120407FC67
S113081005D03EF4909581959F4F0895709561950C
S11308207F4F0895AA1BBB1B51E107C0AA1FBB1F22
S1130830A617B70710F0A61BB70B881F991F5A9568
S1130840A9F780959095BC01CD010895BB274A3046
S113085031F4992322F4BDE2909581959F4F0C9435
S11308603204BB27FB015527AA27880F991FAA1F0B
S1130870A41710F0A41B83955051B9F7A05DAA33B7
S113088008F0A95DA193009779F7B111B193119282
S1130890CB010C944B04DC01FC01672F719177238D
S11308A0E1F7329704C07C916D9370836291AE1727
S10D08B0BF07C8F30895F894FFCFC2
S11308BA0102000000000000000000000000000027
S11308CA496E697469616C697A696E672E2E2E00A5
S11308DA57616974696E6720666F72206461746116
S11308EA00446174612072656365697665643A00DF
S11308FA2C200053656E64696E6720646174612EEE
S113090A2E2E00446174612073656E742E00496E44
S111091A206D6972665F73656E6428293B0068
S9030000FC
