S01A00006E524632344C30315F41546D6567613634302E73726563C9
S11300000C9472000C948F000C948F000C948F004D
S11300100C943A050C948F000C948F000C948F0070
S11300200C948F000C948F000C948F000C948F0010
S11300300C948F000C948F000C948F000C948F0000
S11300400C948F000C948F000C948F000C948F00F0
S11300500C948F000C948F000C948F000C948F00E0
S11300600C948F000C948F000C948F000C948F00D0
S11300700C948F000C948F000C948F000C948F00C0
S11300800C948F000C948F000C948F000C948F00B0
S11300900C948F000C948F000C948F000C948F00A0
S11300A00C948F000C948F000C948F000C948F0090
S11300B00C948F000C948F000C948F000C948F0080
S11300C00C948F000C948F000C948F000C948F0070
S11300D00C948F000C948F000C948F000C948F0060
S11300E00C948F0011241FBECFEFD1E2DEBFCDBF31
S11300F012E0A0E0B2E0EAEBF0E102C005900D925C
S1130100A834B107D9F722E0A8E4B2E001C01D92F7
S1130110A535B207E1F70E9421030C945B080C9407
S11301200000ECE7F0E0808180648083EAE7F0E09F
S11301308081876880830895ECE7F0E09081987F60
S11301408770892B8083EAE7F0E080818064808374
S1130150808184FFFDCF209178008091790090E028
S1130160982F882788279F72822B0895DF92EF9219
S1130170FF920F931F93CF93DF93E62EF12C1E145F
S11301801F04ACF4D82EC0E0D0E000E010E08D2DC8
S11301900E949C00080F191F8FE99FE00197F1F757
S11301A000C000002196CE15DF0589F702C000E0EB
S11301B010E0C801B7010E94FE07CB01DF91CF9187
S11301C01F910F91FF90EF90DF900895EAE0F1E026
S11301D080818F638083089523E030E0EBE0F1E0D9
S11301E08081816080838FE39CE90197F1F700C0EF
S11301F0000080818E7F80838081826080838FE392
S11302009CE90197F1F700C0000080818D7F808315
S11302108081846080838FE39CE90197F1F700C0BB
S1130220000080818B7F80838081886080838FE35E
S11302309CE90197F1F700C000008081877F8083EB
S11302408081806180838FE39CE90197F1F700C08E
S1130250000080818F7E80838081806280838FE331
S11302609CE90197F1F700C000008FE39CE9019736
S1130270F1F700C0000080818F7D808380818061E0
S113028080838FE39CE90197F1F700C0000080812F
S11302908F7E80838081886080838FE39CE90197CF
S11302A0F1F700C000008081877F808380818460B3
S11302B080838FE39CE90197F1F700C000008081FF
S11302C08B7F80838081826080838FE39CE90197A8
S11302D0F1F700C0000080818D7F80838081816080
S11302E080838FE39CE90197F1F700C000008081CF
S11302F08E7F80832150310909F072CF089580FFE9
S113030002C0439A01C0439881FF02C0449A01C0CD
S1130310449882FF02C0459A01C0459883FF02C0F9
S1130320469A01C0469884FF02C0479A01C0479884
S113033085FF02C0A09A01C0A09886FF02C0A19ABE
S113034001C0A198882314F45F9A08955F980895D2
S11303500E947F0142984198409A8FE891E001976A
S1130360F1F700C000004098089587B18FEF87B976
S113037083B3836083BB579A40982FEF83ED90E358
S1130380215080409040E1F700C0000080E30E94CB
S1130390A8018FE39CE90197F1F700C0000088E30E
S11303A00E94A80180E10E94A8018CE00E94A8019B
S11303B081E00E94A80186E00E94A80108950E949D
S11303C07F01429A4198409A8FE891E00197F1F7B2
S11303D000C0000040980895CF93DF9300D0CDB7BC
S11303E0DEB790E8998390EC9A83FE01E80FF11D43
S11303F061508081860F0E94A8018FE891E00197E7
S1130400F1F700C000000F900F90DF91CF91089595
S11304100F931F93CF93FC018081882359F08F01A0
S1130420C0E00E94DF01CF5FF801EC0FF11D808175
S11304308111F7CFCF911F910F910895CF93DF933F
S1130440CDB7DEB760970FB6F894DEBF0FBECDBF51
S1130450FC01009741F02AE030E0B9010E94FE0758
S1130460CB010097D1F74AE0BE016F5F7F4FCF0108
S11304700E942608CE0101960E94080260960FB6DB
S1130480F894DEBF0FBECDBFDF91CF910895BC01BC
S1130490990F880B990B0E94DC062CEE31E548EB92
S11304A05FE30E94910720E030E040EE50E40E94B8
S11304B0C0050E94A406AB019B012D5C3140293587
S11304C03105C8F0673222E072072CF04D5E5140CE
S11304D0440F551F12C06C3C21E0720774F42DEEDA
S11304E031E0C901861B970B919581959109AC0167
S11304F0440F551F02C040E050E0CA01493E53403A
S113050014F088EE93E00895CF92DF92EF92FF9279
S11305102CEE31E548EB5FE30E94910720E030E0E8
S113052040EE50E40E94C0056B017C0120E030E8FD
S113053049E054E40E942D0688235CF420E030E076
S113054046EE53E4C701B6010E948C0718160CF45A
S11305505CC020E030E849E054E4C701B6010E94E1
S11305608C071816ACF420E030E846EF53E4C701DA
S1130570B6010E94C0059B01AC010E94C1052AE995
S113058039E941EB51E40E9432066B017C0120C041
S113059020E030E046EE53E4C701B6010E942D0688
S11305A08823B4F4A701960160E070E886EF93E431
S11305B00E94C00520E030E040E050EC0E9491072A
S11305C02AE939E941EB51E40E9432066B017C01CE
S11305D020E030E04AE754E4C701B6010E948C07EA
S11305E01816BCF020E030E04AE754ECC701B6012D
S11305F00E942D068823ACF40F2EC12CD12CFAE7CF
S1130600EF2EF4ECFF2EF02D0CC0C12CD12C760172
S113061008C00F2EC12CD12CFAE7EF2EF4E4FF2EE4
S1130620F02DC701B6010E94A406CB01FF90EF9004
S1130630DF90CF900895E1E8F0E0808184608083CA
S113064008950E94E6000E941B030E94B5010E94C7
S113065091008FE39CE90197F1F700C0000061E08D
S113066081E00E94EC018AE092E00E940802EFED32
S1130670FEE23197F1F700C0000081E00E94B70567
S11306800E948804FFEF27EA81E6F1502040804071
S1130690E1F700C0000081E00E94A8010E94EC0084
S11306A078940E94AA0485E092E00E94060580E006
S11306B092E00E94FE04EFE3FCE93197F1F700C0F9
S11306C000008AE192E00E946C0581E00E94A8018A
S11306D08FED9EE20197F1F700C0000061E081E038
S11306E00E94EC0181E392E00E94080261E082E052
S11306F00E94EC0188E392E00E9408026BE081E032
S11307000E94EC018EE392E00E9408020F2EFBE0AF
S1130710CF2EDD24D394F02D9924939401E512E097
S11307200F2EFDE22F2E312CF02D0F2EF9E4AF2EDB
S1130730F2E0BF2EF02DC4E8D0E06894882485F858
S1130740F60180818925808365E0892D0E94EC0172
S113075080914F02909150020E941E0284E492E024
S11307600E94080265E082E00E94EC018091490247
S113077090914A020E941E0283E492E00E940802C1
S11307806FE0892D0E94EC018091480290E00E9464
S11307901E0285E492E00E94080265E083E00E9464
S11307A0B6007C0160914D0270914E02072E000C40
S11307B0880B990B0E94DC0620E030E040E85EE301
S11307C00E9491072B013C01B701FF0C880B990B88
S11307D00E94DC0620E030E040E45FE30E949107E1
S11307E09B01AC01C301B2010E94C1050E94A40691
S11307F070934E0260934D02CB010E944702809396
S11308004F0290935002F8019083818365E082E067
S11308100E94B6007C0160914B0270914C02072E3D
S1130820000C880B990B0E94DC0620E030E040E8C5
S11308305EE30E9491072B013C01B701FF0C880B7A
S1130840990B0E94DC0620E030E040E45FE30E9464
S113085091079B01AC01C301B2010E94C1050E9432
S1130860A40670934C0260934B02072E000C880B75
S1130870990B0E94DC060E9484029C012C5F3F4F6E
S11308802930310528F410924A021092490217C007
S11308908E3291052CF030924A02209249020FC008
S11308A0833DFFEF9F072CF090934A028093490207
S11308B006C083ED9FEF90934A0280934902F501AD
S11308C08081F801828363E0C8010E941605F5E384
S11308D0FA95F1F70000198218820FC08881998176
S11308E08432944F50F0809148028F5F8093480285
S11308F0F60180818825808304C00E9496048823A1
S113090069F38FE39CE90197F1F700C0000018CF69
S1130910549A209A5C98289AEA98E9E6F0E0808153
S113092080628083EA9A0E948F05089528988FEF49
S11309300E949A05289A80720895CF93C62F28980A
S11309408F7180620E9495058C2F0E949505289ACC
S1130950CF9108956CE685E00E949D046FEF84E0DA
S11309600E949D0460E081E10E949D0463E082E1B5
S11309700E949D0460E083E10E949D0460E084E1A4
S11309800E949D0460E085E10E949D0460E086E190
S11309900E949D0466E286E00E949D0463E081E07B
S11309A00E949D0463E082E00E949D046FE484E061
S11309B00E949D041092540260E787E00E949D0407
S11309C0289881EE0E949505289A6BE580E00E94A4
S11309D09D045C9A08951F93CF93DF93EB01142F2A
S11309E028988F7180620E949505612FCE010E9424
S11309F0A005289ADF91CF911F9108955C9845E056
S1130A00BC018BE00E94EB045C9A0895CF93DF93C2
S1130A10EC0145E0BC018AE00E94EB0445E0BE0124
S1130A2080E10E94EB04DF91CF9108951F93CF934F
S1130A30DF93EC01162F5C9881E0809354026AE501
S1130A4080E00E949D04289881EE0E949505289AD2
S1130A5060E787E00E949D04289880EA0E9495053B
S1130A60612FCE010E94A005289A5C9ADF91CF9154
S1130A701F9108951F920F920FB60F9211242F9376
S1130A803F934F935F936F937F938F939F93AF9312
S1130A90BF93EF93FF9380915402882361F088E41D
S1130AA090E00E946C055C986BE580E00E949D04D8
S1130AB05C9A10925402FF91EF91BF91AF919F9174
S1130AC08F917F916F915F914F913F912F910F90F3
S1130AD00FBE0F901F9018950F931F93CF93DF9322
S1130AE0FC0180818A30B1F08B3361F413C08991A9
S1130AF08A3081F08B3371F00E94AF050C171D070B
S1130B00B1F708C08F010E94AF05E8012196085390
S1130B101F4FEDCFDF91CF911F910F91089584B1B5
S1130B20876084B981E58CBD08958EBD0DB407FE40
S1130B30FDCF08958EBD0DB407FEFDCF8EB508958B
S1130B40662361F0FC019C01260F311D91919EBD2D
S1130B500DB407FEFDCFE217F307C1F70895E0ECEB
S1130B60F0E0908195FFFDCF8093C600089598E151
S1130B709093C10096E09093C2008093C4000895BE
S1130B805058BB27AA270E94D8050C9452070E94EC
S1130B90440738F00E944B0720F039F49F3F19F4C2
S1130BA026F40C9441070EF4E095E7FB0C943B0704
S1130BB0E92F0E94630758F3BA1762077307840783
S1130BC0950720F079F4A6F50C9485070EF4E095CA
S1130BD00B2EBA2FA02D0B01B90190010C01CA01F3
S1130BE0A0011124FF27591B99F0593F50F4503E9E
S1130BF068F11A16F040A22F232F342F4427585F90
S1130C00F3CF469537952795A795F0405395C9F7A7
S1130C107EF41F16BA0B620B730B840BBAF091505F
S1130C20A1F0FF0FBB1F661F771F881FC2F70EC0FE
S1130C30BA0F621F731F841F48F4879577956795D1
S1130C40B795F7959E3F08F0B0CF9395880F08F0BD
S1130C509927EE0F9795879508950E94170708F432
S1130C6081E008950E9446060C9452070E944B07A7
S1130C7058F00E94440740F029F45F3F29F00C9497
S1130C803B0751110C9486070C9441070E9463079B
S1130C9068F39923B1F3552391F3951B550BBB27A7
S1130CA0AA2762177307840738F09F5F5F4F220FEC
S1130CB0331F441FAA1FA9F335D00E2E3AF0E0E8E3
S1130CC032D091505040E695001CCAF72BD0FE2F2D
S1130CD029D0660F771F881FBB1F261737074807C1
S1130CE0AB07B0E809F0BB0B802DBF01FF27935879
S1130CF05F4F3AF09E3F510578F00C943B070C94FB
S1130D0086075F3FE4F3983ED4F38695779567951D
S1130D10B795F7959F5FC9F7880F911D96958795AD
S1130D2097F90895E1E0660F771F881FBB1F6217CC
S1130D3073078407BA0720F0621B730B840BBA0B8A
S1130D40EE1F88F7E09508950E94AB066894B111F0
S1130D500C94860708950E946B0788F09F5798F0BB
S1130D60B92F9927B751B0F0E1F0660F771F881FAC
S1130D70991F1AF0BA95C9F714C0B13091F00E94C6
S1130D808507B1E008950C948507672F782F88278D
S1130D90B85F39F0B93FCCF3869577956795B395ED
S1130DA0D9F73EF490958095709561957F4F8F4F5C
S1130DB09F4F0895E89409C097FB3EF49095809561
S1130DC0709561957F4F8F4F9F4F9923A9F0F92F0D
S1130DD096E9BB279395F695879577956795B7958B
S1130DE0F111F8CFFAF4BB0F11F460FF1BC06F5F71
S1130DF07F4F8F4F9F4F16C0882311F096E911C083
S1130E00772321F09EE8872F762F05C0662371F0A3
S1130E1096E8862F70E060E02AF09A95660F771FB7
S1130E20881FDAF7880F9695879597F90895990F93
S1130E300008550FAA0BE0E8FEEF16161706E807A0
S1130E40F907C0F012161306E407F50798F0621BC1
S1130E50730B840B950B39F40A2661F0232B242B96
S1130E60252B21F408950A2609F4A140A6958FEFB5
S1130E70811D811D089597F99F6780E870E060E007
S1130E8008959FEF80EC089500240A94161617061F
S1130E9018060906089500240A9412161306140667
S1130EA005060895092E0394000C11F4882352F0CA
S1130EB0BB0F40F4BF2B11F460FF04C06F5F7F4F82
S1130EC08F4F9F4F089557FD9058440F551F59F069
S1130ED05F3F71F04795880F97FB991F61F09F3F23
S1130EE079F087950895121613061406551FF2CF4C
S1130EF04695F1DF08C0161617061806991FF1CF9C
S1130F0086957105610508940895E894BB276627C2
S1130F107727CB0197F908950E94170708F48FEFFC
S1130F2008950E94A4070C9452070E94440738F0C5
S1130F300E944B0720F0952311F00C943B070C946E
S1130F40410711240C9486070E94630770F3959F50
S1130F50C1F3950F50E0551F629FF001729FBB27AC
S1130F60F00DB11D639FAA27F00DB11DAA1F649F48
S1130F706627B00DA11D661F829F2227B00DA11DFB
S1130F80621F739FB00DA11D621F839FA00D611D81
S1130F90221F749F3327A00D611D231F849F600DA2
S1130FA0211D822F762F6A2F11249F5750409AF0CB
S1130FB0F1F088234AF0EE0FFF1FBB1F661F771F57
S1130FC0881F91505040A9F79E3F510580F00C9422
S1130FD03B070C9486075F3FE4F3983ED4F3869571
S1130FE077956795B795F795E7959F5FC1F7FE2BC2
S1130FF0880F911D9695879597F9089597FB072E6D
S113100016F4009407D077FD09D00E94120807FC5B
S113101005D03EF4909581959F4F08957095619504
S11310207F4F0895AA1BBB1B51E107C0AA1FBB1F1A
S1131030A617B70710F0A61BB70B881F991F5A9560
S1131040A9F780959095BC01CD010895BB274A303E
S113105031F4992322F4BDE2909581959F4F0C942D
S11310603208BB27FB015527AA27880F991FAA1FFF
S1131070A41710F0A41B83955051B9F7A05DAA33AF
S113108008F0A95DA193009779F7B111B19311927A
S1131090CB010C944B08DC01FC01672F7191772381
S11310A0E1F7329704C07C916D9370836291AE171F
S10D10B0BF07C8F30895F894FFCFBA
S11310BAD7D7D7D7D7E7E7E7E7E7496E697469610E
S11310CA6C697A696E672E2E2E0053797374656D76
S11310DA20696E697469616C697A65642E2E2E3B87
S11310EA006D74723A2020007372763A20005246D8
S10B10FA3A2000202020000030
S9030000FC
