S01A00006E524632344C30315F41546D6567613634302E73726563C9
S11300000C9472000C948F000C948F000C948F004D
S11300100C944C030C948F000C948F000C948F0060
S11300200C948F000C948F000C948F000C948F0010
S11300300C948F000C948F000C948F000C948F0000
S11300400C948F000C948F000C948F000C948F00F0
S11300500C948F000C948F000C948F000C948F00E0
S11300600C948F000C948F000C948F000C948F00D0
S11300700C948F000C948F000C948F000C948F00C0
S11300800C948F000C948F000C948F000C948F00B0
S11300900C948F000C948F000C948F000C948F00A0
S11300A00C948F000C948F000C948F000C948F0090
S11300B00C948F000C948F000C948F000C948F0080
S11300C00C948F000C948F000C948F000C948F0070
S11300D00C948F000C948F000C948F000C948F0060
S11300E00C948F0011241FBECFEFD1E2DEBFCDBF31
S11300F012E0A0E0B2E0E4E6FAE002C005900D925E
S1130100A233B107D9F722E0A2E3B2E001C01D9205
S1130110A733B207E1F70E941E020C9430050C9439
S11301200000ECE7F0E0808180648083EAE7F0E09F
S11301308081876880830895ECE7F0E09081987F60
S11301408770892B8083EAE7F0E080818064808374
S1130150808184FFFDCF209178008091790090E028
S1130160982F882788279F72822B0895DF92EF9219
S1130170FF920F931F93CF93DF93E62EF12C1E145F
S11301801F04ACF4D82EC0E0D0E000E010E08D2DC8
S11301900E949C00080F191F8FE99FE00197F1F757
S11301A000C000002196CE15DF0589F702C000E0EB
S11301B010E0C801B7010E940805CB01DF91CF917F
S11301C01F910F91FF90EF90DF900895EAE0F1E026
S11301D080818F638083089523E030E0EBE0F1E0D9
S11301E08081816080838FE39CE90197F1F700C0EF
S11301F0000080818E7F80838081826080838FE392
S11302009CE90197F1F700C0000080818D7F808315
S11302108081846080838FE39CE90197F1F700C0BB
S1130220000080818B7F80838081886080838FE35E
S11302309CE90197F1F700C000008081877F8083EB
S11302408081806180838FE39CE90197F1F700C08E
S1130250000080818F7E80838081806280838FE331
S11302609CE90197F1F700C000008FE39CE9019736
S1130270F1F700C0000080818F7D808380818061E0
S113028080838FE39CE90197F1F700C0000080812F
S11302908F7E80838081886080838FE39CE90197CF
S11302A0F1F700C000008081877F808380818460B3
S11302B080838FE39CE90197F1F700C000008081FF
S11302C08B7F80838081826080838FE39CE90197A8
S11302D0F1F700C0000080818D7F80838081816080
S11302E080838FE39CE90197F1F700C000008081CF
S11302F08E7F80832150310909F072CF089580FFE9
S113030002C0439A01C0439881FF02C0449A01C0CD
S1130310449882FF02C0459A01C0459883FF02C0F9
S1130320469A01C0469884FF02C0479A01C0479884
S113033085FF02C0A09A01C0A09886FF02C0A19ABE
S113034001C0A198882314F45F9A08955F980895D2
S11303500E947F0142984198409A8FE891E001976A
S1130360F1F700C000004098089587B18FEF87B976
S113037083B3836083BB579A40982FEF83ED90E358
S1130380215080409040E1F700C0000080E30E94CB
S1130390A8018FE39CE90197F1F700C0000088E30E
S11303A00E94A80180E10E94A8018CE00E94A8019B
S11303B081E00E94A80186E00E94A80108950E949D
S11303C07F01429A4198409A8FE891E00197F1F7B2
S11303D000C0000040980895CF93DF9300D0CDB7BC
S11303E0DEB790E8998390EC9A83FE01E80FF11D43
S11303F061508081860F0E94A8018FE891E00197E7
S1130400F1F700C000000F900F90DF91CF91089595
S11304100F931F93CF93FC018081882359F08F01A0
S1130420C0E00E94DF01CF5FF801EC0FF11D808175
S11304308111F7CFCF911F910F9108950E94E6008B
S11304400E94B5010E9491008FE39CE90197F1F7A6
S113045000C0000061E081E00E94EC018AE092E0CB
S11304600E940802EFEDFEE23197F1F700C00000B0
S113047081E00E94C9030E949A02FFEF27EA81E605
S1130480F15020408040E1F700C0000081E00E946C
S1130490A8010E94EC0078940E94BC0285E092E0DE
S11304A00E94180380E092E00E941003EFE3FCE94D
S11304B03197F1F700C000008AE192E00E947E03C8
S11304C004E312E0CBE0D1E0FF24F39465E086E09E
S11304D00E94B600BC01990F880B990B0E947C0402
S11304E024E13EEA43E251E40E94D2030E94440420
S11304F06093320270933302F801608388818F2500
S1130500888362E0C8010E942803F5E3FA95F1F7B5
S113051000000E94A8028823E1F388818F25888344
S11305202FEF86E791E0215080409040E1F700C032
S11305300000CCCF549A209A5C98289AEA98E9E66D
S1130540F0E0808180628083EA9A0E94A10308958A
S113055028988FEF0E94AC03289A80720895CF9355
S1130560C62F28988F7180620E94A7038C2F0E9447
S1130570A703289ACF9108956CE685E00E94AF0204
S11305806FEF84E00E94AF0260E081E10E94AF025D
S113059062E082E10E94AF0260E083E10E94AF0268
S11305A060E084E10E94AF0260E085E10E94AF0256
S11305B060E086E10E94AF0266E286E00E94AF023C
S11305C063E081E00E94AF0263E082E00E94AF0238
S11305D06FE484E00E94AF021092360260E787E085
S11305E00E94AF02289881EE0E94A703289A6BE527
S11305F080E00E94AF025C9A08951F93CF93DF932B
S1130600EB01142F28988F7180620E94A703612F39
S1130610CE010E94B203289ADF91CF911F910895D1
S11306205C9845E0BC018BE00E94FD025C9A089551
S1130630CF93DF93EC0145E0BC018AE00E94FD0208
S113064045E0BE0180E10E94FD02DF91CF91089553
S11306501F93CF93DF93EC01162F5C9881E0809376
S113066036026AE580E00E94AF02289881EE0E947B
S1130670A703289A60E787E00E94AF02289880EADF
S11306800E94A703612FCE010E94B203289A5C9AAC
S1130690DF91CF911F9108951F920F920FB60F9281
S11306A011242F933F934F935F936F937F938F9373
S11306B09F93AF93BF93EF93FF9380913602882368
S11306C061F088E490E00E947E035C986BE580E032
S11306D00E94AF025C9A10923602FF91EF91BF9193
S11306E0AF919F918F917F916F915F914F913F91C6
S11306F02F910F900FBE0F901F9018950F931F937B
S1130700CF93DF93FC0180818A30B1F08B3361F4A5
S113071013C089918A3081F08B3371F00E94C10338
S11307200C171D07B1F708C08F010E94C103E8012F
S1130730219608531F4FEDCFDF91CF911F910F9159
S1130740089584B1876084B981E58CBD08958EBD18
S11307500DB407FEFDCF08958EBD0DB407FEFDCF89
S11307608EB50895662361F0FC019C01260F311DAE
S113077091919EBD0DB407FEFDCFE217F307C1F7BB
S11307800895E0ECF0E0908195FFFDCF8093C600E2
S1130790089598E19093C10096E09093C2008093ED
S11307A0C40008950E94E6030C94CE040E94C7047A
S11307B058F00E94C00440F029F45F3F29F00C94E3
S11307C0B70451110C9402050C94BD040E94DF047B
S11307D068F39923B1F3552391F3951B550BBB276C
S11307E0AA2762177307840738F09F5F5F4F220FB1
S11307F0331F441FAA1FA9F335D00E2E3AF0E0E8A8
S113080032D091505040E695001CCAF72BD0FE2FF1
S113081029D0660F771F881FBB1F26173707480785
S1130820AB07B0E809F0BB0B802DBF01FF2793583D
S11308305F4F3AF09E3F510578F00C94B7040C9446
S113084002055F3FE4F3983ED4F386957795679568
S1130850B795F7959F5FC9F7880F911D9695879572
S113086097F90895E1E0660F771F881FBB1F621791
S113087073078407BA0720F0621B730B840BBA0B4F
S1130880EE1F88F7E09508950E944B046894B11117
S11308900C94020508950E94E70488F09F5798F08D
S11308A0B92F9927B751B0F0E1F0660F771F881F71
S11308B0991F1AF0BA95C9F714C0B13091F00E948B
S11308C00105B1E008950C940105672F782F88275E
S11308D0B85F39F0B93FCCF3869577956795B395B2
S11308E0D9F73EF490958095709561957F4F8F4F21
S11308F09F4F0895E89409C097FB3EF49095809526
S1130900709561957F4F8F4F9F4F9923A9F0F92FD1
S113091096E9BB279395F695879577956795B7954F
S1130920F111F8CFFAF4BB0F11F460FF1BC06F5F35
S11309307F4F8F4F9F4F16C0882311F096E911C047
S1130940772321F09EE8872F762F05C0662371F068
S113095096E8862F70E060E02AF09A95660F771F7C
S1130960881FDAF7880F9695879597F9089597F970
S11309709F6780E870E060E008959FEF80EC089541
S113098000240A941616170618060906089500246A
S11309900A9412161306140605060895092E0394E4
S11309A0000C11F4882352F0BB0F40F4BF2B11F458
S11309B060FF04C06F5F7F4F8F4F9F4F089557FDB7
S11309C09058440F551F59F05F3F71F04795880FB9
S11309D097FB991F61F09F3F79F087950895121650
S11309E013061406551FF2CF4695F1DF08C01616FC
S11309F017061806991FF1CF8695710561050894AD
S1130A000895E894BB2766277727CB0197F90895C3
S1130A1097FB072E16F4009407D077FD09D00E94A7
S1130A201C0507FC05D03EF4909581959F4F0895D1
S1130A30709561957F4F0895AA1BBB1B51E107C0B8
S1130A40AA1FBB1FA617B70710F0A61BB70B881F5A
S1130A50991F5A95A9F780959095BC01CD010895E9
S1070A60F894FFCF34
S1130A64D7D7D7D7D7E7E7E7E7E7496E697469616A
S1130A746C697A696E672E2E2E0053797374656DD2
S1130A8420696E697469616C697A65642E2E2E3BE3
S1050A9400005C
S9030000FC
