S01A00006E524632344C30315F41546D6567613634302E73726563C9
S11300000C9472000C948F000C948F000C948F004D
S11300100C943F070C948F000C948F000C948F0069
S11300200C948F000C948F000C948F000C948F0010
S11300300C948F000C948F000C948F000C948F0000
S11300400C948F000C948F000C948F000C948F00F0
S11300500C948F000C948F000C948F000C948F00E0
S11300600C948F000C948F000C948F000C948F00D0
S11300700C948F000C948F000C948F000C948F00C0
S11300800C94FC050C948F000C948F000C948F003E
S11300900C948F000C948F000C948F000C948F00A0
S11300A00C948F000C948F000C948F000C948F0090
S11300B00C948F000C948F000C948F000C948F0080
S11300C00C948F000C948F000C948F000C948F0070
S11300D00C948F000C948F000C948F000C948F0060
S11300E00C948F0011241FBECFEFD1E2DEBFCDBF31
S11300F012E0A0E0B2E0ECE4F4E102C005900D925D
S1130100AA39B107D9F722E0AAE9B2E001C01D92E9
S1130110A33BB207E1F70E94A6030C94240A0C94B3
S11301200000ECE7F0E0808180648083EAE7F0E09F
S11301308081876880830895ECE7F0E09081987F60
S11301408770892B8083EAE7F0E080818064808374
S1130150808184FFFDCF209178008091790090E028
S1130160982F882788279F72822B0895DF92EF9219
S1130170FF920F931F93CF93DF93E62EF12C1E145F
S11301801F04ACF4D82EC0E0D0E000E010E08D2DC8
S11301900E949C00080F191F8FE99FE00197F1F757
S11301A000C000002196CE15DF0589F702C000E0EB
S11301B010E0C801B7010E94C709CB01DF91CF91BC
S11301C01F910F91FF90EF90DF900895EAE0F1E026
S11301D080818F638083089523E030E0EBE0F1E0D9
S11301E08081816080838FE39CE90197F1F700C0EF
S11301F0000080818E7F80838081826080838FE392
S11302009CE90197F1F700C0000080818D7F808315
S11302108081846080838FE39CE90197F1F700C0BB
S1130220000080818B7F80838081886080838FE35E
S11302309CE90197F1F700C000008081877F8083EB
S11302408081806180838FE39CE90197F1F700C08E
S1130250000080818F7E80838081806280838FE331
S11302609CE90197F1F700C000008FE39CE9019736
S1130270F1F700C0000080818F7D808380818061E0
S113028080838FE39CE90197F1F700C0000080812F
S11302908F7E80838081886080838FE39CE90197CF
S11302A0F1F700C000008081877F808380818460B3
S11302B080838FE39CE90197F1F700C000008081FF
S11302C08B7F80838081826080838FE39CE90197A8
S11302D0F1F700C0000080818D7F80838081816080
S11302E080838FE39CE90197F1F700C000008081CF
S11302F08E7F80832150310909F072CF089580FFE9
S113030002C0439A01C0439881FF02C0449A01C0CD
S1130310449882FF02C0459A01C0459883FF02C0F9
S1130320469A01C0469884FF02C0479A01C0479884
S113033085FF02C0A09A01C0A09886FF02C0A19ABE
S113034001C0A198882314F45F9A08955F980895D2
S11303500E947F0142984198409A8FE891E001976A
S1130360F1F700C000004098089587B18FEF87B976
S113037083B3836083BB579A40982FEF83ED90E358
S1130380215080409040E1F700C0000080E30E94CB
S1130390A8018FE39CE90197F1F700C0000088E30E
S11303A00E94A80180E10E94A8018CE00E94A8019B
S11303B081E00E94A80186E00E94A80108950E949D
S11303C07F01429A4198409A8FE891E00197F1F7B2
S11303D000C0000040980895CF93DF9300D0CDB7BC
S11303E0DEB790E8998390EC9A83FE01E80FF11D43
S11303F061508081860F0E94A8018FE891E00197E7
S1130400F1F700C000000F900F90DF91CF91089595
S11304100F931F93CF93FC018081882359F08F01A0
S1130420C0E00E94DF01CF5FF801EC0FF11D808175
S11304308111F7CFCF911F910F910895CF93DF933F
S1130440CDB7DEB760970FB6F894DEBF0FBECDBF51
S1130450FC01009741F02AE030E0B9010E94C7098D
S1130460CB010097D1F74AE0BE016F5F7F4FCF0108
S11304700E94EF09CE0101960E94080260960FB611
S1130480F894DEBF0FBECDBFDF91CF910895BC01BC
S1130490990F880B990B0E94A5082CEE31E548EBC7
S11304A05FE30E945A0920E030E040EE50E40E94ED
S11304B089070E946D08AB019B012D5C31402935F1
S11304C03105C8F0673222E072072CF04D5E5140CE
S11304D0440F551F12C06C3C21E0720774F42DEEDA
S11304E031E0C901861B970B919581959109AC0167
S11304F0440F551F02C040E050E0CA01493E53403A
S113050014F088EE93E00895CF92DF92EF92FF9279
S11305102CEE31E548EB5FE30E945A0920E030E01D
S113052040EE50E40E9489076B017C0120E030E832
S113053049E054E40E94F60788235CF420E030E0AC
S113054046EE53E4C701B6010E94550918160CF48F
S11305505CC020E030E849E054E4C701B6010E94E1
S113056055091816ACF420E030E846EF53E4C7010F
S1130570B6010E9489079B01AC010E948A072AE9FF
S113058039E941EB51E40E94FB076B017C0120C077
S113059020E030E046EE53E4C701B6010E94F607BE
S11305A08823B4F4A701960160E070E886EF93E431
S11305B00E94890720E030E040E050EC0E945A0994
S11305C02AE939E941EB51E40E94FB076B017C0104
S11305D020E030E04AE754E4C701B6010E9455091F
S11305E01816BCF020E030E04AE754ECC701B6012D
S11305F00E94F6078823ACF40F2EC12CD12CFAE705
S1130600EF2EF4ECFF2EF02D0CC0C12CD12C760172
S113061008C00F2EC12CD12CFAE7EF2EF4E4FF2EE4
S1130620F02DC701B6010E946D08CB01FF90EF9039
S1130630DF90CF90089561E081E00E94EC018AE0B0
S113064092E00E94080267E081E00E94EC0187E8E2
S113065092E00E9408026AE081E00E94EC0187E8CF
S113066092E00E94080261E082E00E94EC018FE0C7
S113067092E00E94080267E082E00E94EC0187E8B1
S113068092E00E9408026AE082E00E94EC0187E89E
S113069092E00E94080265E081E00E94EC018091F2
S11306A0A50290E00E941E0268E081E00E94EC0135
S11306B08091A40290E00E941E026BE081E00E94FF
S11306C0EC018091A30290E00E941E0288E192E076
S11306D00E94080265E082E00E94EC018091A2027F
S11306E090E00E941E0268E082E00E94EC0180918A
S11306F0A10290E00E941E026BE082E00E94EC01E5
S11307008091A00290E00E941E0284E192E00E9487
S113071008020895E1E8F0E0808184608083089510
S1130720E0E9F0E0808180688083E1E9F0E08081A5
S11307308D60808380E19AE790939900809398007C
S1130740E1E7F0E080818260808308950E94E60002
S11307500E948A030E9490030E94B5010E949100A6
S11307608FE39CE90197F1F700C0000061E081E0AC
S11307700E94EC018AE192E00E940802EFEDFEE2A1
S11307803197F1F700C0000081E00E9480070E94C9
S11307905B0681E00E94A8010E94EC000E949B0677
S11307A085E092E00E940B0780E092E00E9403073C
S11307B08FE39CE90197F1F700C0000081E00E94FB
S11307C0A801EFEDFEE23197F1F700C0000061E00F
S11307D081E00E94EC018AE292E00E940802FFEFAD
S11307E023ED80E3F15020408040E1F700C0000099
S11307F0789481E00E94A801EFEDFEE23197F1F7D1
S113080000C0000061E081E00E94EC018BE392E013
S11308100E9408020F2EFBE0EF2EFF24F394F02D2C
S11308200FEA12E0C4E8D0E06894992492F80F2EFD
S1130830F7EAAF2EF2E0BF2EF02D0F2EFDE22F2EA1
S1130840312CF02D0F2EFFE48F2EF02D80919F027E
S1130850833320F010929F020E949B0680919C0299
S1130860882331F080919A0281111EC00E941B03DB
S113087080919B028823C1F080919A02811114C057
S113088080919C02811110C061E081E00E94EC0122
S113089089E492E00E94080261E082E00E94EC0197
S11308A087E592E00E94080280919D0290919E0249
S11308B0019690939E0280939D02F701908181E0BE
S11308C08927808380919D0290919E02C29709F0AE
S11308D062C021E4F801208363E0C8010E941B0781
S11308E01982188212C088819981893B9B4068F0E3
S11308F081E08093A60280919F028F5F80939F0284
S1130900F70180818925808304C00E9476068823AC
S113091051F38091A60281113CC00E948A0619827B
S1130920188214C088819981893B9B4078F081E0CA
S11309308093A60280919F028F5F80939F02F701AC
S11309408081F0E28F27F701808304C00E9469064A
S1130950882341F38091A602811116C0C8010E9428
S1130960DC06F8018081882361F091E090939C0279
S11309708093A50281818093A40282818093A30243
S11309800AC010929C0207C010929C021092A60208
S113099002C01092A60280919D0290919E0285361B
S11309A0910508F45CC010929E0210929D02F80119
S11309B0808263E0C8010E941B071982188212C05A
S11309C088819981893B9B4068F081E08093A602ED
S11309D080919F028F5F80939F02F7018081892518
S11309E0808304C00E947606882351F38091A60276
S11309F0811132C00E948A061982188214C088812B
S1130A009981893B9B4078F081E08093A602809194
S1130A109F028F5F80939F02F7018081F0E28F270E
S1130A20F701808304C00E946906882341F3809102
S1130A30A60281110EC0C8010E94DC06F801808163
S1130A408093A20281818093A10282818093A0027B
S1130A50CCC01092A602C9C01092A602C6C065E01E
S1130A6083E00E94B6006C016091AB027091AC020D
S1130A70072E000C880B990B0E94A50820E030E09B
S1130A8040E85EE30E945A092B013C01B601DD0CEB
S1130A90880B990B0E94A50820E030E040E45FE356
S1130AA00E945A099B01AC01C301B2010E948A074A
S1130AB00E946D087093AC026093AB02CB010E945C
S1130AC047028093AD029093AE02F8019083818334
S1130AD065E082E00E94B6006C016091A902709109
S1130AE0AA02072E000C880B990B0E94A50820E08F
S1130AF030E040E85EE30E945A092B013C01B60154
S1130B00DD0C880B990B0E94A50820E030E040E43E
S1130B105FE30E945A099B01AC01C301B2010E9428
S1130B208A070E946D087093AA026093A902072E97
S1130B30000C880B990B0E94A5080E9484029C015A
S1130B402C5F3F4F2930310528F41092A8021092EF
S1130B50A70217C08E3291052CF03092A802209281
S1130B60A7020FC0833DFFEF9F072CF09093A802CC
S1130B708093A70206C083ED9FEF9093A802809311
S1130B80A702F5018081F801828363E0C8010E9415
S1130B901B07F5E3FA95F1F700001982188212C0D9
S1130BA088819981893B9B4068F081E08093A6020B
S1130BB080919F028F5F80939F02F7018081892536
S1130BC0808304C00E947606882351F38091A60294
S1130BD0811106C081E080939B0210929A0205C0A5
S1130BE01092A60281E080939A028FE39CE9019718
S1130BF0F1F700C000002ACE1F920F920FB60F9299
S1130C0011242F933F934F935F936F937F938F930D
S1130C109F93AF93BF93EF93FF9380919B0288239D
S1130C20C9F16EE081E00E94EC0180919F02811184
S1130C3005C088E692E00E9408022AC09FEF980F40
S1130C40923028F48CE692E00E94080221C09DEFC5
S1130C50980F933028F480E792E00E94080218C0AD
S1130C608650843028F484E792E00E94080210C081
S1130C7061E081E00E94EC0188E792E00E940802B2
S1130C8061E082E00E94EC0189E892E00E9408029F
S1130C9010929F02FF91EF91BF91AF919F918F911D
S1130CA07F916F915F914F913F912F910F900FBE64
S1130CB00F901F901895549A209A5C98289AEA9855
S1130CC0E9E6F0E0808180628083EA9A0E944D0721
S1130CD008958091B202811107C028988FEF0E9475
S1130CE05807289A8074089580E0089528988FEF13
S1130CF00E945807289A80720895CF93C62F289887
S1130D008F7180620E9453078C2F0E945307289A88
S1130D10CF9108951092B20260E787E00E947D06A9
S1130D20289881EE0E945307289A6BE580E00E9480
S1130D307D065C9A08956CE685E00E947D066FEF5F
S1130D4084E00E947D0660E081E10E947D0663E00C
S1130D5082E10E947D0660E083E10E947D0660E0FE
S1130D6084E10E947D0660E085E10E947D0660E0EA
S1130D7086E10E947D0666E286E00E947D0663E0CD
S1130D8081E00E947D0663E082E00E947D066FE4BC
S1130D9084E00E947D061092B20260E787E00E9420
S1130DA07D06289881EE0E945307289A6BE580E01F
S1130DB00E947D065C9A0895CF93DF93EC012898F6
S1130DC081E60E94530743E0BE01CE010E946D07F5
S1130DD0289A60E487E00E947D06DF91CF91089510
S1130DE01F93CF93DF93EB01142F28988F718062A8
S1130DF00E945307612FCE010E945E07289ADF915B
S1130E00CF911F9108955C9845E0BC018BE00E944E
S1130E10F0065C9A0895CF93DF93EC0145E0BC01A2
S1130E208AE00E94F00645E0BE0180E10E94F006DF
S1130E30DF91CF9108951F93CF93DF93EC01162F89
S1130E405C9881E08093B2026AE580E00E947D06AE
S1130E50289881EE0E945307289A60E787E00E9451
S1130E607D06289880EA0E945307612FCE010E94D4
S1130E705E07289A5C9ADF91CF911F9108951F9283
S1130E800F920FB60F9211248F938091B2028F911B
S1130E900F900FBE0F901F90189584B1876084B98E
S1130EA081E58CBD08958EBD0DB407FEFDCF089578
S1130EB08EBD0DB407FEFDCF8EB50895662361F097
S1130EC0FC019C01260F311D91919EBD0DB407FEBE
S1130ED0FDCFE217F307C1F70895442381F0FC0125
S1130EE0A62FB72F9C01240F311D91919EBD0DB4E7
S1130EF007FEFDCF9EB59D93E217F307B1F7089562
S1130F0098E19093C10096E09093C2008093C4004E
S1130F1008955058BB27AA270E94A1070C941B09C7
S1130F200E940D0938F00E94140920F039F49F3F03
S1130F3019F426F40C940A090EF4E095E7FB0C94DA
S1130F400409E92F0E942C0958F3BA1762077307A2
S1130F508407950720F079F4A6F50C944E090EF455
S1130F60E0950B2EBA2FA02D0B01B90190010C01B5
S1130F70CA01A0011124FF27591B99F0593F50F4CD
S1130F80503E68F11A16F040A22F232F342F442725
S1130F90585FF3CF469537952795A795F04053951D
S1130FA0C9F77EF41F16BA0B620B730B840BBAF0ED
S1130FB09150A1F0FF0FBB1F661F771F881FC2F758
S1130FC00EC0BA0F621F731F841F48F4879577956C
S1130FD06795B795F7959E3F08F0B0CF9395880F26
S1130FE008F09927EE0F9795879508950E94E008D9
S1130FF008F481E008950E940F080C941B090E94D4
S1131000140958F00E940D0940F029F45F3F29F0BB
S11310100C94040951110C944F090C940A090E9470
S11310202C0968F39923B1F3552391F3951B550BC0
S1131030BB27AA2762177307840738F09F5F5F4FA7
S1131040220F331F441FAA1FA9F335D00E2E3AF0E6
S1131050E0E832D091505040E695001CCAF72BD0FE
S1131060FE2F29D0660F771F881FBB1F261737074F
S11310704807AB07B0E809F0BB0B802DBF01FF2781
S113108093585F4F3AF09E3F510578F00C94040951
S11310900C944F095F3FE4F3983ED4F3869577951B
S11310A06795B795F7959F5FC9F7880F911D96953A
S11310B0879597F90895E1E0660F771F881FBB1F96
S11310C0621773078407BA0720F0621B730B840B43
S11310D0BA0BEE1F88F7E09508950E94740868948F
S11310E0B1110C944F0908950E94340988F09F5758
S11310F098F0B92F9927B751B0F0E1F0660F771F38
S1131100881F991F1AF0BA95C9F714C0B13091F02D
S11311100E944E09B1E008950C944E09672F782F70
S11311208827B85F39F0B93FCCF3869577956795F2
S1131130B395D9F73EF490958095709561957F4F5E
S11311408F4F9F4F0895E89409C097FB3EF4909504
S11311508095709561957F4F8F4F9F4F9923A9F08C
S1131160F92F96E9BB279395F6958795779567951B
S1131170B795F111F8CFFAF4BB0F11F460FF1BC05F
S11311806F5F7F4F8F4F9F4F16C0882311F096E9F2
S113119011C0772321F09EE8872F762F05C06623A0
S11311A071F096E8862F70E060E02AF09A95660F59
S11311B0771F881FDAF7880F9695879597F9089512
S11311C0990F0008550FAA0BE0E8FEEF1616170654
S11311D0E807F907C0F012161306E407F50798F0BC
S11311E0621B730B840B950B39F40A2661F0232BD5
S11311F0242B252B21F408950A2609F4A140A69551
S11312008FEF811D811D089597F99F6780E870E035
S113121060E008959FEF80EC089500240A94161668
S1131220170618060906089500240A9412161306D0
S1131230140605060895092E0394000C11F488235E
S113124052F0BB0F40F4BF2B11F460FF04C06F5F7A
S11312507F4F8F4F9F4F089557FD9058440F551F50
S113126059F05F3F71F04795880F97FB991F61F024
S11312709F3F79F087950895121613061406551F9B
S1131280F2CF4695F1DF08C0161617061806991F07
S1131290F1CF86957105610508940895E894BB27FC
S11312A066277727CB0197F908950E94E00808F490
S11312B08FEF08950E946D090C941B090E940D097B
S11312C038F00E94140920F0952311F00C940409BD
S11312D00C940A0911240C944F090E942C0970F3F0
S11312E0959FC1F3950F50E0551F629FF001729FC7
S11312F0BB27F00DB11D639FAA27F00DB11DAA1FD6
S1131300649F6627B00DA11D661F829F2227B00D22
S1131310A11D621F739FB00DA11D621F839FA00DAD
S1131320611D221F749F3327A00D611D231F849FFD
S1131330600D211D822F762F6A2F11249F57504054
S11313409AF0F1F088234AF0EE0FFF1FBB1F661FCF
S1131350771F881F91505040A9F79E3F510580F098
S11313600C9404090C944F095F3FE4F3983ED4F3C2
S1131370869577956795B795F795E7959F5FC1F73C
S1131380FE2B880F911D9695879597F9089597FBE5
S1131390072E16F4009407D077FD09D00E94DB09CC
S11313A007FC05D03EF4909581959F4F0895709564
S11313B061957F4F0895AA1BBB1B51E107C0AA1F6B
S11313C0BB1FA617B70710F0A61BB70B881F991FE2
S11313D05A95A9F780959095BC01CD010895BB2736
S11313E04A3031F4992322F4BDE2909581959F4FC0
S11313F00C94FB09BB27FB015527AA27880F991FCB
S1131400AA1FA41710F0A41B83955051B9F7A05D2F
S1131410AA3308F0A95DA193009779F7B111B193AC
S11314201192CB010C94140ADC01FC01672F719119
S11314307723E1F7329704C07C916D9370836291B6
S10F1440AE17BF07C8F30895F894FFCF5F
S113144CD7D7D7D7D7E7E7E7E7E74C41543A004C6F
S113145C4F4E3A00202020202000496E69746961A7
S113146C6C697A696E672E2E2E00496E69746961F7
S113147C6C697A6174696F6E2020004E4F20434F63
S113148C4E4E454354494F4E00436F6E6E65637424
S113149C65642C2020200057616974696E67206F85
S11314AC6E204750532020002A2A2A002A2A200082
S11314BC2A2020004F464600434F4E4E4543544984
S11314CC4F4E204C4F53542C0052455345542043FB
S10D14DC4F4E54524F4C4C45520041
S9030000FC
