S01A00006E524632344C30315F41546D6567613634302E73726563C9
S11300000C9472000C948F000C948F000C948F004D
S11300100C9481030C948F000C948F000C948F002B
S11300200C948F000C948F000C948F000C948F0010
S11300300C948F000C948F000C948F000C948F0000
S11300400C948F000C948F000C948F000C948F00F0
S11300500C948F000C948F000C948F000C948F00E0
S11300600C948F000C948F000C948F000C948F00D0
S11300700C948F000C948F000C948F000C948F00C0
S11300800C948F000C948F000C948F000C948F00B0
S11300900C948F000C948F000C948F000C948F00A0
S11300A00C948F000C948F000C948F000C948F0090
S11300B00C948F000C948F000C948F000C948F0080
S11300C00C948F000C948F000C948F000C948F0070
S11300D00C948F000C948F000C948F000C948F0060
S11300E00C948F0011241FBECFEFD1E2DEBFCDBF31
S11300F012E0A0E0B2E0EEECFAE002C005900D924E
S1130100A233B107D9F722E0A2E3B2E001C01D9205
S1130110A933B207E1F70E941E020C9465050C9402
S11301200000ECE7F0E0808180648083EAE7F0E09F
S11301308081876880830895ECE7F0E09081987F60
S11301408770892B8083EAE7F0E080818064808374
S1130150808184FFFDCF209178008091790090E028
S1130160982F882788279F72822B0895DF92EF9219
S1130170FF920F931F93CF93DF93E62EF12C1E145F
S11301801F04ACF4D82EC0E0D0E000E010E08D2DC8
S11301900E949C00080F191F8FE99FE00197F1F757
S11301A000C000002196CE15DF0589F702C000E0EB
S11301B010E0C801B7010E943D05CB01DF91CF914A
S11301C01F910F91FF90EF90DF900895EAE0F1E026
S11301D080818F638083089523E030E0EBE0F1E0D9
S11301E08081816080838FE39CE90197F1F700C0EF
S11301F0000080818E7F80838081826080838FE392
S11302009CE90197F1F700C0000080818D7F808315
S11302108081846080838FE39CE90197F1F700C0BB
S1130220000080818B7F80838081886080838FE35E
S11302309CE90197F1F700C000008081877F8083EB
S11302408081806180838FE39CE90197F1F700C08E
S1130250000080818F7E80838081806280838FE331
S11302609CE90197F1F700C000008FE39CE9019736
S1130270F1F700C0000080818F7D808380818061E0
S113028080838FE39CE90197F1F700C0000080812F
S11302908F7E80838081886080838FE39CE90197CF
S11302A0F1F700C000008081877F808380818460B3
S11302B080838FE39CE90197F1F700C000008081FF
S11302C08B7F80838081826080838FE39CE90197A8
S11302D0F1F700C0000080818D7F80838081816080
S11302E080838FE39CE90197F1F700C000008081CF
S11302F08E7F80832150310909F072CF089580FFE9
S113030002C0439A01C0439881FF02C0449A01C0CD
S1130310449882FF02C0459A01C0459883FF02C0F9
S1130320469A01C0469884FF02C0479A01C0479884
S113033085FF02C0A09A01C0A09886FF02C0A19ABE
S113034001C0A198882314F45F9A08955F980895D2
S11303500E947F0142984198409A8FE891E001976A
S1130360F1F700C000004098089587B18FEF87B976
S113037083B3836083BB579A40982FEF83ED90E358
S1130380215080409040E1F700C0000080E30E94CB
S1130390A8018FE39CE90197F1F700C0000088E30E
S11303A00E94A80180E10E94A8018CE00E94A8019B
S11303B081E00E94A80186E00E94A80108950E949D
S11303C07F01429A4198409A8FE891E00197F1F7B2
S11303D000C0000040980895CF93DF9300D0CDB7BC
S11303E0DEB790E8998390EC9A83FE01E80FF11D43
S11303F061508081860F0E94A8018FE891E00197E7
S1130400F1F700C000000F900F90DF91CF91089595
S11304100F931F93CF93FC018081882359F08F01A0
S1130420C0E00E94DF01CF5FF801EC0FF11D808175
S11304308111F7CFCF911F910F9108950E94E6008B
S11304400E94B5010E9491008FE39CE90197F1F7A6
S113045000C0000061E081E00E94EC018AE092E0CB
S11304600E940802EFEDFEE23197F1F700C00000B0
S113047081E00E94FE030E94CF02FFEF27EA81E69B
S1130480F15020408040E1F700C0000081E00E946C
S1130490A8010E94EC0078940E94F10285E092E0A9
S11304A00E944D0380E092E00E944503EFE3FCE9E3
S11304B03197F1F700C000008AE192E00E94B30393
S11304C006E312E00F2EFDE2CF2ED12CF02D0F2EDD
S11304D0F2E3EF2EF2E0FF2EF02DCBE0D1E0BB24CF
S11304E0B39465E086E00E94B600BC01990F880BC6
S11304F0990B0E94B10424E13EEA43E251E40E94D4
S113050007040E9479046093340270933502F80161
S1130510608365E084E00E94B600BC01990F880BFB
S1130520990B0E94B10424E13EEA43E251E40E94A3
S113053007040E947904653071052CF4109233028B
S1130540109232020CC06E3271052CF47093330297
S11305506093320204C0D0923302C0923202F70197
S11305608081F801818388818B25888362E0C801BA
S11305700E945D03F5E3FA95F1F700000E94DD02A5
S11305808823E1F388818B2588832FEF86E791E028
S1130590215080409040E1F700C00000A2CF549A5F
S11305A0209A5C98289AEA98E9E6F0E080818062D3
S11305B08083EA9A0E94D603089528988FEF0E94B8
S11305C0E103289A80720895CF93C62F28988F71DB
S11305D080620E94DC038C2F0E94DC03289ACF9156
S11305E008956CE685E00E94E4026FEF84E00E94C7
S11305F0E40260E081E10E94E40262E082E10E94A0
S1130600E40260E083E10E94E40260E084E10E948D
S1130610E40260E085E10E94E40260E086E10E9479
S1130620E40266E286E00E94E40263E081E00E9464
S1130630E40263E082E00E94E4026FE484E00E944A
S1130640E4021092380260E787E00E94E4022898EE
S113065081EE0E94DC03289A6BE580E00E94E402AC
S11306605C9A08951F93CF93DF93EB01142F28987E
S11306708F7180620E94DC03612FCE010E94E70328
S1130680289ADF91CF911F9108955C9845E0BC01B1
S11306908BE00E9432035C9A0895CF93DF93EC01C0
S11306A045E0BC018AE00E94320345E0BE0180E1DE
S11306B00E943203DF91CF9108951F93CF93DF936C
S11306C0EC01162F5C9881E0809338026AE580E0A3
S11306D00E94E402289881EE0E94DC03289A60E7D5
S11306E087E00E94E402289880EA0E94DC03612FDC
S11306F0CE010E94E703289A5C9ADF91CF911F9163
S113070008951F920F920FB60F9211242F933F93C7
S11307104F935F936F937F938F939F93AF93BF9305
S1130720EF93FF9380913802882361F088E490E08E
S11307300E94B3035C986BE580E00E94E4025C9A3B
S113074010923802FF91EF91BF91AF919F918F91D9
S11307507F916F915F914F913F912F910F900FBEB9
S11307600F901F9018950F931F93CF93DF93FC0165
S113077080818A30B1F08B3361F413C089918A305F
S113078081F08B3371F00E94F6030C171D07B1F74B
S113079008C08F010E94F603E801219608531F4FF9
S11307A0EDCFDF91CF911F910F91089584B18760B0
S11307B084B981E58CBD08958EBD0DB407FEFDCFCF
S11307C008958EBD0DB407FEFDCF8EB50895662342
S11307D061F0FC019C01260F311D91919EBD0DB469
S11307E007FEFDCFE217F307C1F70895E0ECF0E050
S11307F0908195FFFDCF8093C600089598E1909372
S1130800C10096E09093C2008093C40008950E94B2
S11308101B040C9403050E94FC0458F00E94F50488
S113082040F029F45F3F29F00C94EC0451110C942E
S113083037050C94F2040E94140568F39923B1F36C
S1130840552391F3951B550BBB27AA2762177307F2
S1130850840738F09F5F5F4F220F331F441FAA1F86
S1130860A9F335D00E2E3AF0E0E832D09150504042
S1130870E695001CCAF72BD0FE2F29D0660F771FF0
S1130880881FBB1F261737074807AB07B0E809F0D6
S1130890BB0B802DBF01FF2793585F4F3AF09E3F5B
S11308A0510578F00C94EC040C9437055F3FE4F3A5
S11308B0983ED4F3869577956795B795F7959F5F9E
S11308C0C9F7880F911D9695879597F90895E1E0EA
S11308D0660F771F881FBB1F621773078407BA0749
S11308E020F0621B730B840BBA0BEE1F88F7E095A4
S11308F008950E9480046894B1110C9437050895FA
S11309000E941C0588F09F5798F0B92F9927B7517A
S1130910B0F0E1F0660F771F881F991F1AF0BA959F
S1130920C9F714C0B13091F00E943605B1E00895C2
S11309300C943605672F782F8827B85F39F0B93FB4
S1130940CCF3869577956795B395D9F73EF4909552
S11309508095709561957F4F8F4F9F4F0895E894D0
S113096009C097FB3EF490958095709561957F4FF3
S11309708F4F9F4F9923A9F0F92F96E9BB279395A1
S1130980F695879577956795B795F111F8CFFAF4B1
S1130990BB0F11F460FF1BC06F5F7F4F8F4F9F4FE2
S11309A016C0882311F096E911C0772321F09EE840
S11309B0872F762F05C0662371F096E8862F70E0A6
S11309C060E02AF09A95660F771F881FDAF7880F80
S11309D09695879597F9089597F99F6780E870E051
S11309E060E008959FEF80EC089500240A941616A1
S11309F0170618060906089500240A941216130609
S1130A00140605060895092E0394000C11F4882396
S1130A1052F0BB0F40F4BF2B11F460FF04C06F5FB2
S1130A207F4F8F4F9F4F089557FD9058440F551F88
S1130A3059F05F3F71F04795880F97FB991F61F05C
S1130A409F3F79F087950895121613061406551FD3
S1130A50F2CF4695F1DF08C0161617061806991F3F
S1130A60F1CF86957105610508940895E894BB2734
S1130A7066277727CB0197F9089597FB072E16F47D
S1130A80009407D077FD09D00E94510507FC05D0DA
S1130A903EF4909581959F4F0895709561957F4F91
S1130AA00895AA1BBB1B51E107C0AA1FBB1FA617B1
S1130AB0B70710F0A61BB70B881F991F5A95A9F703
S1110AC080959095BC01CD010895F894FFCF68
S1130ACED7D7D7D7D7E7E7E7E7E7496E6974696100
S1130ADE6C697A696E672E2E2E0053797374656D68
S1130AEE20696E697469616C697A65642E2E2E3B79
S1050AFE0000F2
S9030000FC
