S01A00006E524632344C30315F41546D6567613634302E73726563C9
S11300000C9472000C94C3020C948F000C948F0017
S11300100C948F000C948F000C948F000C948F0020
S11300200C948F000C948F000C948F000C948F0010
S11300300C948F000C948F000C948F000C948F0000
S11300400C948F000C948F000C948F000C948F00F0
S11300500C948F000C948F000C948F000C948F00E0
S11300600C948F000C948F000C948F000C948F00D0
S11300700C948F000C948F000C948F000C948F00C0
S11300800C948F000C948F000C948F000C948F00B0
S11300900C948F000C948F000C948F000C948F00A0
S11300A00C948F000C948F000C948F000C948F0090
S11300B00C948F000C948F000C948F000C948F0080
S11300C00C948F000C948F000C948F000C948F0070
S11300D00C948F000C948F000C948F000C948F0060
S11300E00C948F0011241FBECFEFD1E2DEBFCDBF31
S11300F012E0A0E0B2E0E4E9F7E002C005900D925E
S1130100AC31B107D9F722E0ACE1B2E001C01D92F5
S1130110AD31B207E1F70E94C9010C94C8030C94F5
S11301200000EAE0F1E080818F638083089523E09A
S113013030E0EBE0F1E08081816080838FE39CE933
S11301400197F1F700C0000080818E7F8083808159
S1130150826080838FE39CE90197F1F700C000007F
S113016080818D7F80838081846080838FE39CE99C
S11301700197F1F700C0000080818B7F808380812C
S1130180886080838FE39CE90197F1F700C0000049
S11301908081877F80838081806180838FE39CE975
S11301A00197F1F700C0000080818F7E80838081F9
S11301B0806280838FE39CE90197F1F700C000001F
S11301C08FE39CE90197F1F700C0000080818F7DE7
S11301D080838081806180838FE39CE90197F1F7BC
S11301E000C0000080818F7E80838081886080834E
S11301F08FE39CE90197F1F700C000008081877FBD
S113020080838081846080838FE39CE90197F1F788
S113021000C0000080818B7F808380818260808326
S11302208FE39CE90197F1F700C0000080818D7F86
S113023080838081816080838FE39CE90197F1F75B
S113024000C0000080818E7F80832150310909F035
S113025072CF089580FF02C0439A01C0439881FF82
S113026002C0449A01C0449882FF02C0459A01C06A
S1130270459883FF02C0469A01C0469884FF02C095
S1130280479A01C0479885FF02C0A09A01C0A09870
S113029086FF02C0A19A01C0A198882314F45F9A32
S11302A008955F9808950E942A0142984198409ABF
S11302B08FE891E00197F1F700C00000409808959D
S11302C087B18FEF87B983B3836083BB579A409814
S11302D02FEF83ED90E3215080409040E1F700C080
S11302E0000080E30E9453018FE39CE90197F1F73A
S11302F000C0000088E30E94530180E10E94530182
S11303008CE00E94530181E00E94530186E00E9428
S1130310530108950E942A01429A4198409A8FE815
S113032091E00197F1F700C0000040980895CF9341
S1130330DF9300D0CDB7DEB790E8998390EC9A8331
S1130340FE01E80FF11D61508081860F0E94530168
S11303508FE891E00197F1F700C000000F900F9033
S1130360DF91CF9108950F931F93CF93FC01808168
S1130370882359F08F01C0E00E948A01CF5FF80101
S1130380EC0FF11D80818111F7CFCF911F910F9157
S113039008950E9491000E9460018FE39CE90197F7
S11303A0F1F700C0000061E081E00E9497018CE059
S11303B092E00E94B3018FED9EE20197F1F700C035
S11303C0000081E00E9462030E9419029FEF27EA65
S11303D081E6915020408040E1F700C0000081E0B8
S11303E00E9453010E94970078940E94480285E07D
S11303F092E00E94B30280E092E00E94AB028FE39D
S11304009CE90197F1F700C00000CBE0D1E011E0D6
S11304108881812788830E9427028823E1F38AE068
S113042092E00E94840280910A0290E00E94CF022E
S1130430EFCF549A209A5C98289AE898E9E6F0E07D
S1130440808182608083E89A0E9427030895CF9375
S113045080911C0281110CC028988FEF0E943203F6
S1130460C82F289A90E00E94CF028C2F807401C07C
S113047080E0CF910895CF93C62F28988F71806222
S11304800E942D038C2F0E942D03289ACF9108954A
S113049062E085E00E943B0260E081E10E943B0251
S11304A062E082E10E943B0260E083E10E943B0241
S11304B060E084E10E943B0260E085E10E943B022F
S11304C060E086E10E943B0266E286E00E943B0215
S11304D063E081E00E943B0263E082E00E943B0211
S11304E06FE484E00E943B0210921C0260E787E004
S11304F00E943B0281EE0E942D035C986BE480E035
S11305000E943B025C9A0895CF93DF93EC012898F4
S113051081E60E942D0342E0BE01CE010E94470302
S1130520289A60E487E00E943B02DF91CF9108950E
S11305301F93CF93DF93EB01142F28988F71806260
S11305400E942D03612FCE010E943803289ADF9167
S1130550CF911F9108955C9845E0BC018BE00E9407
S113056098025C9A0895CF93DF93EC0145E0BC01B7
S11305708AE00E94980245E0BE0180E10E94980250
S1130580DF91CF9108951F920F920FB60F9211240D
S113059010921C020F900FBE0F901F901895EF92AF
S11305A0FF920F931F93CF93DF93CDB7DEB7C05461
S11305B0D1090FB6F894DEBF0FBECDBF8C010097F2
S11305C089F120E030E0EAE0F0E001C09701BF01EA
S11305D00E946B03CB0179014FEFE41AF40A0097F0
S11305E0A9F7112324F4790182E0E80EF11C4AE012
S11305F0BE016F5F7F4FC8010E9493031E141F0446
S11306006CF48E010F5F1F4FE00EF11EF801819113
S11306108F010E945A030E151F05C1F78AE00E943C
S11306205A0307C04AE0BE016F5F7F4F0E949303E5
S1130630F5CFC05CDF4F0FB6F894DEBF0FBECDBF61
S1130640DF91CF911F910F91FF90EF90089584B1A6
S1130650876084B981E58CBD08958EBD0DB407FE15
S1130660FDCF08958EBD0DB407FEFDCF8EB5089560
S1130670662361F0FC019C01260F311D91919EBD02
S11306800DB407FEFDCFE217F307C1F70895442325
S113069081F0FC01A62FB72F9C01240F311D9191ED
S11306A09EBD0DB407FEFDCF9EB59D93E217F307E3
S11306B0B1F70895E0ECF0E0908195FFFDCF8093D1
S11306C0C600089598E19093C10096E09093C2000B
S11306D08093C400089597FB072E16F4009407D066
S11306E077FD09D00E947F0307FC05D03EF4909566
S11306F081959F4F0895709561957F4F0895AA1B2A
S1130700BB1B51E107C0AA1FBB1FA617B70710F0F8
S1130710A61BB70B881F991F5A95A9F7809590952A
S1130720BC01CD010895BB274A3031F4992322F44A
S1130730BDE2909581959F4F0C949F03BB27FB01CD
S11307405527AA27880F991FAA1FA41710F0A41BC6
S113075083955051B9F7A05DAA3308F0A95DA19320
S1130760009779F7B111B1931192CB010C94B803AE
S1130770DC01FC01672F71917723E1F7329704C004
S11307807C916D9370836291AE17BF07C8F308958F
S1070790F894FFCF07
S1130794E7E7E7E7E7D7D7D7D7D70102496E697404
S10F07A469616C697A696E672E2E2E0064
S9030000FC
