S01A00006E524632344C30315F41546D6567613634302E73726563C9
S11300000C9472000C948F000C948F000C948F004D
S11300100C9442040C948F000C948F000C948F0069
S11300200C948F000C948F000C948F000C948F0010
S11300300C948F000C948F000C948F000C948F0000
S11300400C948F000C948F000C948F000C948F00F0
S11300500C948F000C948F000C948F000C948F00E0
S11300600C948F000C948F000C948F000C948F00D0
S11300700C948F000C948F000C948F000C948F00C0
S11300800C948F000C948F000C948F000C948F00B0
S11300900C948F000C948F000C948F000C948F00A0
S11300A00C948F000C948F000C948F000C948F0090
S11300B00C948F000C948F000C948F000C948F0080
S11300C00C948F000C948F000C948F000C948F0070
S11300D00C948F000C948F000C948F000C948F0060
S11300E00C948F0011241FBECFEFD1E2DEBFCDBF31
S11300F012E0A0E0B2E0EAEBFCE002C005900D9251
S1130100AE34B107D9F722E0AEE4B2E001C01D92EB
S1130110A735B207E1F70E944D020C945B060C94DC
S11301200000ECE7F0E0808180648083EAE7F0E09F
S11301308081876880830895ECE7F0E09081987F60
S11301408770892B8083EAE7F0E080818064808374
S1130150808184FFFDCF209178008091790090E028
S1130160982F882788279F72822B0895DF92EF9219
S1130170FF920F931F93CF93DF93E62EF12C1E145F
S11301801F04ACF4D82EC0E0D0E000E010E08D2DC8
S11301900E949C00080F191F8FE99FE00197F1F757
S11301A000C000002196CE15DF0589F702C000E0EB
S11301B010E0C801B7010E94FE05CB01DF91CF9189
S11301C01F910F91FF90EF90DF900895EAE0F1E026
S11301D080818F638083089523E030E0EBE0F1E0D9
S11301E08081816080838FE39CE90197F1F700C0EF
S11301F0000080818E7F80838081826080838FE392
S11302009CE90197F1F700C0000080818D7F808315
S11302108081846080838FE39CE90197F1F700C0BB
S1130220000080818B7F80838081886080838FE35E
S11302309CE90197F1F700C000008081877F8083EB
S11302408081806180838FE39CE90197F1F700C08E
S1130250000080818F7E80838081806280838FE331
S11302609CE90197F1F700C000008FE39CE9019736
S1130270F1F700C0000080818F7D808380818061E0
S113028080838FE39CE90197F1F700C0000080812F
S11302908F7E80838081886080838FE39CE90197CF
S11302A0F1F700C000008081877F808380818460B3
S11302B080838FE39CE90197F1F700C000008081FF
S11302C08B7F80838081826080838FE39CE90197A8
S11302D0F1F700C0000080818D7F80838081816080
S11302E080838FE39CE90197F1F700C000008081CF
S11302F08E7F80832150310909F072CF089580FFE9
S113030002C0439A01C0439881FF02C0449A01C0CD
S1130310449882FF02C0459A01C0459883FF02C0F9
S1130320469A01C0469884FF02C0479A01C0479884
S113033085FF02C0A09A01C0A09886FF02C0A19ABE
S113034001C0A198882314F45F9A08955F980895D2
S11303500E947F0142984198409A8FE891E001976A
S1130360F1F700C000004098089587B18FEF87B976
S113037083B3836083BB579A40982FEF83ED90E358
S1130380215080409040E1F700C0000080E30E94CB
S1130390A8018FE39CE90197F1F700C0000088E30E
S11303A00E94A80180E10E94A8018CE00E94A8019B
S11303B081E00E94A80186E00E94A80108950E949D
S11303C07F01429A4198409A8FE891E00197F1F7B2
S11303D000C0000040980895CF93DF9300D0CDB7BC
S11303E0DEB790E8998390EC9A83FE01E80FF11D43
S11303F061508081860F0E94A8018FE891E00197E7
S1130400F1F700C000000F900F90DF91CF91089595
S11304100F931F93CF93FC018081882359F08F01A0
S1130420C0E00E94DF01CF5FF801EC0FF11D808175
S11304308111F7CFCF911F910F910895CF93DF933F
S1130440CDB7DEB760970FB6F894DEBF0FBECDBF51
S1130450FC01009741F02AE030E0B9010E94FE055A
S1130460CB010097D1F74AE0BE016F5F7F4FCF0108
S11304700E942606CE0101960E94080260960FB6DD
S1130480F894DEBF0FBECDBFDF91CF910895E1E8B0
S1130490F0E080818460808308950E94E6000E94D9
S11304A047020E94B5010E9491008FE39CE90197E5
S11304B0F1F700C0000061E081E00E94EC018AE0F5
S11304C092E00E940802EFEDFEE23197F1F700C0DE
S11304D0000081E00E94BF040E949003FFEF27EA1E
S11304E081E6F15020408040E1F700C0000081E047
S11304F00E94A8010E94EC0078940E94B20385E057
S113050092E00E940E0480E092E00E940604EFE371
S1130510FCE93197F1F700C000008AE192E00E9403
S1130520740481E00E94A8018FED9EE20197F1F727
S113053000C0000061E081E00E94EC0181E392E0F0
S11305400E94080261E082E00E94EC0188E392E0EC
S11305500E94080280915202909153020E941E024E
S113056069E081E00E94EC018EE392E00E940802BF
S113057080915202909153020E941E020F2EFBE0C2
S1130580EF2EFF24F394F02D9924939404E512E0C4
S11305900F2EFDE2AF2EB12CF02D0F2EF0E5CF2E55
S11305A0F2E0DF2EF02DC4E8D0E06894882485F8CA
S11305B0F70180818925808365E0892D0E94EC0103
S11305C080915202909153020E941E0286E392E0AF
S11305D00E94080265E082E00E94EC0180915002D2
S11305E0909151020E941E0286E392E00E9408024A
S11305F080914F02811109C06DE0892D0E94EC01A8
S113060083E492E00E94080217C099EF980F983093
S113061048F46DE0892D0E94EC0188E492E00E9488
S113062008020AC0803140F06DE0892D0E94EC017F
S113063083E492E00E94080265E086E00E94B6002E
S1130640BC01990F880B990B0E94720524E13EEAC4
S113065043E251E40E94C8040E943A0560935202A6
S113066070935302F801608365E084E00E94B60051
S1130670BC01990F880B990B0E94720524E13EEA94
S113068043E251E40E94C8040E943A0565307105B2
S11306902CF410925102109250020CC06E3271056B
S11306A02CF4709351026093500204C0B092510232
S11306B0A0925002F6018081F801818362E0C801B2
S11306C00E941E04F5E3FA95F1F7000019821882DE
S11306D011C0888199818432944F60F080914F02D7
S11306E08F5F80934F0290924E02F701808188259C
S11306F0808304C00E949E03882359F380914E0294
S1130700811105C080914F02815080934F02109255
S11307104E028FE39CE90197F1F700C0000048CF37
S1130720549A209A5C98289AEA98E9E6F0E0808145
S113073080628083EA9A0E949704089528988FEF34
S11307400E94A204289A80720895CF93C62F2898F5
S11307508F7180620E949D048C2F0E949D04289AB0
S1130760CF9108956CE685E00E94A5036FEF84E0C5
S11307700E94A50360E081E10E94A50362E082E19A
S11307800E94A50360E083E10E94A50360E084E188
S11307900E94A50360E085E10E94A50360E086E174
S11307A00E94A50366E286E00E94A50363E081E05F
S11307B00E94A50363E082E00E94A5036FE484E045
S11307C00E94A5031092560260E787E00E94A503E9
S11307D0289881EE0E949D04289A6BE580E00E948F
S11307E0A5035C9A08951F93CF93DF93EB01142F15
S11307F028988F7180620E949D04612FCE010E940F
S1130800A804289ADF91CF911F9108955C9845E040
S1130810BC018BE00E94F3035C9A0895CF93DF93AD
S1130820EC0145E0BC018AE00E94F30345E0BE010F
S113083080E10E94F303DF91CF9108951F93CF933A
S1130840DF93EC01162F5C9881E0809356026AE5F1
S113085080E00E94A503289881EE0E949D04289AB6
S113086060E787E00E94A503289880EA0E949D041F
S1130870612FCE010E94A804289A5C9ADF91CF913F
S11308801F9108951F920F920FB60F9211242F9368
S11308903F934F935F936F937F938F939F93AF9304
S11308A0BF93EF93FF9380915602882361F088E40D
S11308B090E00E9474045C986BE580E00E94A503BC
S11308C05C9A10925602FF91EF91BF91AF919F9164
S11308D08F917F916F915F914F913F912F910F90E5
S11308E00FBE0F901F9018950F931F93CF93DF9314
S11308F0FC0180818A30B1F08B3361F413C089919B
S11309008A3081F08B3371F00E94B7040C171D07F5
S1130910B1F708C08F010E94B704E801219608537B
S11309201F4FEDCFDF91CF911F910F91089584B1A7
S1130930876084B981E58CBD08958EBD0DB407FE32
S1130940FDCF08958EBD0DB407FEFDCF8EB508957D
S1130950662361F0FC019C01260F311D91919EBD1F
S11309600DB407FEFDCFE217F307C1F70895E0ECDD
S1130970F0E0908195FFFDCF8093C600089598E143
S11309809093C10096E09093C2008093C4000895B0
S11309900E94DC040C94C4050E94BD0558F00E941A
S11309A0B60540F029F45F3F29F00C94AD055111D0
S11309B00C94F8050C94B3050E94D50568F39923AB
S11309C0B1F3552391F3951B550BBB27AA27621747
S11309D07307840738F09F5F5F4F220F331F441F54
S11309E0AA1FA9F335D00E2E3AF0E0E832D0915088
S11309F05040E695001CCAF72BD0FE2F29D0660F75
S1130A00771F881FBB1F261737074807AB07B0E8B7
S1130A1009F0BB0B802DBF01FF2793585F4F3AF0BD
S1130A209E3F510578F00C94AD050C94F8055F3F9A
S1130A30E4F3983ED4F3869577956795B795F79543
S1130A409F5FC9F7880F911D9695879597F908952B
S1130A50E1E0660F771F881FBB1F621773078407C7
S1130A60BA0720F0621B730B840BBA0BEE1F88F7D6
S1130A70E09508950E9441056894B1110C94F8051D
S1130A8008950E94DD0588F09F5798F0B92F9927A3
S1130A90B751B0F0E1F0660F771F881F991F1AF065
S1130AA0BA95C9F714C0B13091F00E94F705B1E0CE
S1130AB008950C94F705672F782F8827B85F39F0CD
S1130AC0B93FCCF3869577956795B395D9F73EF4FE
S1130AD090958095709561957F4F8F4F9F4F0895A6
S1130AE0E89409C097FB3EF49095809570956195C4
S1130AF07F4F8F4F9F4F9923A9F0F92F96E9BB277A
S1130B009395F695879577956795B795F111F8CFF5
S1130B10FAF4BB0F11F460FF1BC06F5F7F4F8F4F60
S1130B209F4F16C0882311F096E911C0772321F056
S1130B309EE8872F762F05C0662371F096E8862FEE
S1130B4070E060E02AF09A95660F771F881FDAF745
S1130B50880F9695879597F9089597F99F6780E888
S1130B6070E060E008959FEF80EC089500240A94FB
S1130B701616170618060906089500240A94121674
S1130B801306140605060895092E0394000C11F4A7
S1130B90882352F0BB0F40F4BF2B11F460FF04C054
S1130BA06F5F7F4F8F4F9F4F089557FD9058440FAD
S1130BB0551F59F05F3F71F04795880F97FB991FB8
S1130BC061F09F3F79F08795089512161306140675
S1130BD0551FF2CF4695F1DF08C016161706180602
S1130BE0991FF1CF86957105610508940895E894DD
S1130BF0BB2766277727CB0197F9089597FB072E24
S1130C0016F4009407D077FD09D00E94120607FC61
S1130C1005D03EF4909581959F4F08957095619508
S1130C207F4F0895AA1BBB1B51E107C0AA1FBB1F1E
S1130C30A617B70710F0A61BB70B881F991F5A9564
S1130C40A9F780959095BC01CD010895BB274A3042
S1130C5031F4992322F4BDE2909581959F4F0C9431
S1130C603206BB27FB015527AA27880F991FAA1F05
S1130C70A41710F0A41B83955051B9F7A05DAA33B3
S1130C8008F0A95DA193009779F7B111B19311927E
S1130C90CB010C944B06DC01FC01672F7191772387
S1130CA0E1F7329704C07C916D9370836291AE1723
S10D0CB0BF07C8F30895F894FFCFBE
S1130CBAD7D7D7D7D7E7E7E7E7E7496E6974696112
S1130CCA6C697A696E672E2E2E0053797374656D7A
S1130CDA20696E697469616C697A65642E2E2E3B8B
S1130CEA006D74723A2020007372763A20005246DC
S1110CFA3A2000474F4F44004241442020005E
S9030000FC
