:100000000C9472000C948F000C948F000C948F0051
:100010000C94E0050C948F000C948F000C948F00CE
:100020000C948F000C948F000C948F000C948F0014
:100030000C948F000C948F000C948F000C948F0004
:100040000C948F000C948F000C948F000C948F00F4
:100050000C948F000C948F000C948F000C948F00E4
:100060000C948F000C948F000C948F000C948F00D4
:100070000C948F000C948F000C948F000C948F00C4
:100080000C948F000C948F000C948F000C948F00B4
:100090000C948F000C948F000C948F000C948F00A4
:1000A0000C948F000C948F000C948F000C948F0094
:1000B0000C948F000C948F000C948F000C948F0084
:1000C0000C948F000C948F000C948F000C948F0074
:1000D0000C948F000C948F000C948F000C948F0064
:1000E0000C948F0011241FBECFEFD1E2DEBFCDBF35
:1000F00012E0A0E0B2E0EAEEF1E102C005900D925C
:10010000AC34B107D9F722E0ACE4B2E001C01D92F3
:10011000AD35B207E1F70E9421030C94F3080C946B
:100120000000ECE7F0E0808180648083EAE7F0E0A3
:100130008081876880830895ECE7F0E09081987F64
:100140008770892B8083EAE7F0E080818064808378
:10015000808184FFFDCF209178008091790090E02C
:10016000982F882788279F72822B0895DF92EF921D
:10017000FF920F931F93CF93DF93E62EF12C1E1463
:100180001F04ACF4D82EC0E0D0E000E010E08D2DCC
:100190000E949C00080F191F8FE99FE00197F1F75B
:1001A00000C000002196CE15DF0589F702C000E0EF
:1001B00010E0C801B7010E949608CB01DF91CF91F2
:1001C0001F910F91FF90EF90DF900895EAE0F1E02A
:1001D00080818F638083089523E030E0EBE0F1E0DD
:1001E0008081816080838FE39CE90197F1F700C0F3
:1001F000000080818E7F80838081826080838FE396
:100200009CE90197F1F700C0000080818D7F808319
:100210008081846080838FE39CE90197F1F700C0BF
:10022000000080818B7F80838081886080838FE362
:100230009CE90197F1F700C000008081877F8083EF
:100240008081806180838FE39CE90197F1F700C092
:10025000000080818F7E80838081806280838FE335
:100260009CE90197F1F700C000008FE39CE901973A
:10027000F1F700C0000080818F7D808380818061E4
:1002800080838FE39CE90197F1F700C00000808133
:100290008F7E80838081886080838FE39CE90197D3
:1002A000F1F700C000008081877F808380818460B7
:1002B00080838FE39CE90197F1F700C00000808103
:1002C0008B7F80838081826080838FE39CE90197AC
:1002D000F1F700C0000080818D7F80838081816084
:1002E00080838FE39CE90197F1F700C000008081D3
:1002F0008E7F80832150310909F072CF089580FFED
:1003000002C0439A01C0439881FF02C0449A01C0D1
:10031000449882FF02C0459A01C0459883FF02C0FD
:10032000469A01C0469884FF02C0479A01C0479888
:1003300085FF02C0A09A01C0A09886FF02C0A19AC2
:1003400001C0A198882314F45F9A08955F980895D6
:100350000E947F0142984198409A8FE891E001976E
:10036000F1F700C000004098089587B18FEF87B97A
:1003700083B3836083BB579A40982FEF83ED90E35C
:10038000215080409040E1F700C0000080E30E94CF
:10039000A8018FE39CE90197F1F700C0000088E312
:1003A0000E94A80180E10E94A8018CE00E94A8019F
:1003B00081E00E94A80186E00E94A80108950E94A1
:1003C0007F01429A4198409A8FE891E00197F1F7B6
:1003D00000C0000040980895CF93DF9300D0CDB7C0
:1003E000DEB790E8998390EC9A83FE01E80FF11D47
:1003F00061508081860F0E94A8018FE891E00197EB
:10040000F1F700C000000F900F90DF91CF91089599
:100410000F931F93CF93FC018081882359F08F01A4
:10042000C0E00E94DF01CF5FF801EC0FF11D808179
:100430008111F7CFCF911F910F910895CF93DF9343
:10044000CDB7DEB760970FB6F894DEBF0FBECDBF55
:10045000FC01009741F02AE030E0B9010E949608C3
:10046000CB010097D1F74AE0BE016F5F7F4FCF010C
:100470000E94BE08CE0101960E94080260960FB647
:10048000F894DEBF0FBECDBFDF91CF910895BC01C0
:10049000990F880B990B0E9474072CEE31E548EBFD
:1004A0005FE30E94290820E030E040EE50E40E9423
:1004B00058060E943C07AB019B012D5C3140293559
:1004C0003105C8F0673222E072072CF04D5E5140D2
:1004D000440F551F12C06C3C21E0720774F42DEEDE
:1004E00031E0C901861B970B919581959109AC016B
:1004F000440F551F02C040E050E0CA01493E53403E
:1005000014F088EE93E00895CF92DF92EF92FF927D
:100510002CEE31E548EB5FE30E94290820E030E053
:1005200040EE50E40E9458066B017C0120E030E868
:1005300049E054E40E94C50688235CF420E030E0E2
:1005400046EE53E4C701B6010E94240818160CF4C5
:100550005CC020E030E849E054E4C701B6010E94E5
:1005600024081816ACF420E030E846EF53E4C70145
:10057000B6010E9458069B01AC010E9459062AE967
:1005800039E941EB51E40E94CA066B017C0120C0AD
:1005900020E030E046EE53E4C701B6010E94C506F4
:1005A0008823B4F4A701960160E070E886EF93E435
:1005B0000E94580620E030E040E050EC0E942908FC
:1005C0002AE939E941EB51E40E94CA066B017C013A
:1005D00020E030E04AE754E4C701B6010E94240855
:1005E0001816BCF020E030E04AE754ECC701B60131
:1005F0000E94C5068823ACF40F2EC12CD12CFAE73B
:10060000EF2EF4ECFF2EF02D0CC0C12CD12C760176
:1006100008C00F2EC12CD12CFAE7EF2EF4E4FF2EE8
:10062000F02DC701B6010E943C07CB01FF90EF906F
:10063000DF90CF900895E1E8F0E0808184608083CE
:1006400008950E94E6000E941B030E94B5010E94CB
:1006500091008FE39CE90197F1F700C0000061E091
:1006600081E00E94EC018AE092E00E940802EFED36
:10067000FEE23197F1F700C0000081E00E944F06D2
:100680000E94FC0481E00E94A8010E94EC00789482
:100690000E943C0585E092E00E94AC0580E092E07B
:1006A0000E94A4058FE39CE90197F1F700C00000C8
:1006B0008AE192E00E94EE0581E00E94A801EFED40
:1006C000FEE23197F1F700C0000061E081E00E9496
:1006D000EC0181E392E00E94080261E082E00E9466
:1006E000EC0188E392E00E9408026BE081E00E9446
:1006F000EC018EE392E00E9408026CE082E00E942E
:10070000EC0183E492E00E9408020F2EFBE0EF2E42
:10071000FF24F394F02D11E00F2EF9E5CF2EF2E037
:10072000DF2EF02D0F2EF1E58F2EF2E09F2EF02D13
:10073000C4E8D0E06894332432F804E568942224B5
:1007400025F880914E02833320F010924E020E94D1
:100750003C0580914C0290914D02019690934D0280
:1007600080934C02F70180818127808365E0812F8F
:100770000E94EC0180915702909158020E941E0243
:1007800087E492E00E94080265E082E00E94EC01AA
:1007900080915102909152020E941E0287E492E0E1
:1007A0000E9408026FE0812F0E94EC0180914E02AE
:1007B00090E00E941E0289E492E00E9408026EE02E
:1007C00082E00E94EC0180914F0290E00E941E02A4
:1007D00080914C0290914D024A9708F450C01092BB
:1007E0004D0210924C02F601008363E0C6010E94A4
:1007F000BC051982188211C088819981893B9B4070
:1008000060F01093500280914E028F5F80934E02F1
:10081000F70180818325808304C00E941705882307
:1008200059F380915002811127C00E942B05198233
:1008300018820FC088819981893B9B4050F080913C
:100840004E028F5F80934E02F70180818225808364
:1008500004C00E940A05882369F380915002811127
:1008600008C0C6010E947D05F601808180934F0279
:10087000BCC010925002B9C010925002B6C065E0E0
:1008800083E00E94B6005C016091550270915602AF
:10089000072E000C880B990B0E94740720E030E0B3
:1008A00040E85EE30E9429082B013C01B501BB0C26
:1008B000880B990B0E94740720E030E040E45FE36E
:1008C0000E9429089B01AC01C301B2010E94590694
:1008D0000E943C077093560260935502CB010E9420
:1008E00047028093570290935802F60190838183C8
:1008F00065E082E00E94B6005C0160915302709155
:100900005402072E000C880B990B0E94740720E0FC
:1009100030E040E85EE30E9429082B013C01B5016C
:10092000BB0C880B990B0E94740720E030E040E478
:100930005FE30E9429089B01AC01C301B2010E9440
:1009400059060E943C077093540260935302072E8D
:10095000000C880B990B0E9474070E9484029C0172
:100960002C5F3F4F2930310528F41092520210922B
:10097000510219C08E3291053CF08DE290E09093C7
:100980005202809351020FC0833DEFEF9E072CF07F
:10099000909352028093510206C083ED9FEF909393
:1009A000520280935102F4018081F601828363E058
:1009B000C6010E94BC05F5E3FA95F1F70000198223
:1009C00018820FC088819981893B9B4050F08091AB
:1009D0004E028F5F80934E02F701808183258083D2
:1009E00004C00E941705882369F38FE39CE90197EF
:1009F000F1F700C00000A5CE549A209A5C98289A7E
:100A0000EA98E9E6F0E0808180628083EA9A0E94B9
:100A10001406089580915C02811107C028988FEF19
:100A20000E941F06289A8074089580E008952898EF
:100A30008FEF0E941F06289A80720895CF93C62FC9
:100A400028988F7180620E941A068C2F0E941A06C5
:100A5000289ACF91089510925C0260E787E00E9487
:100A60001E05289881EE0E941A06289A6BE580E000
:100A70000E941E055C9A08956CE685E00E941E05A2
:100A80006FEF84E00E941E0560E081E10E941E0578
:100A900063E082E10E941E0560E083E10E941E0582
:100AA00060E084E10E941E0560E085E10E941E0571
:100AB00060E086E10E941E0566E286E00E941E0557
:100AC00063E081E00E941E0563E082E00E941E0553
:100AD0006FE484E00E941E0510925C0260E787E0EC
:100AE0000E941E05289881EE0E941A06289A6BE53E
:100AF00080E00E941E055C9A0895CF93DF93EC017D
:100B0000289881E60E941A0643E0BE01CE010E94A9
:100B10003406289A60E487E00E941E05DF91CF9199
:100B200008951F93CF93DF93EB01142F28988F71B3
:100B300080620E941A06612FCE010E942506289A23
:100B4000DF91CF911F9108955C9845E0BC018BE047
:100B50000E9491055C9A0895CF93DF93EC0145E0E4
:100B6000BC018AE00E94910545E0BE0180E10E943F
:100B70009105DF91CF9108951F93CF93DF93EC01FF
:100B8000162F5C9881E080935C026AE580E00E9409
:100B90001E05289881EE0E941A06289A60E787E0D1
:100BA0000E941E05289880EA0E941A06612FCE0135
:100BB0000E942506289A5C9ADF91CF911F91089593
:100BC0001F920F920FB60F9211248F9380915C02A7
:100BD0008F910F900FBE0F901F9018950F931F933A
:100BE000CF93DF938C01FC0180818A3069F08B33D5
:100BF00079F40AC089918A3039F08B3329F00E9448
:100C000047060C171D07B1F78AE00E94470607C088
:100C10000E944706E801219608531F4FEBCFDF9152
:100C2000CF911F910F91089584B1876084B981E5B8
:100C30008CBD08958EBD0DB407FEFDCF08958EBD09
:100C40000DB407FEFDCF8EB50895662361F0FC015B
:100C50009C01260F311D91919EBD0DB407FEFDCF65
:100C6000E217F307C1F70895442381F0FC01A62F92
:100C7000B72F9C01240F311D91919EBD0DB407FE2D
:100C8000FDCF9EB59D93E217F307B1F70895E0EC11
:100C9000F0E0908195FFFDCF8093C600089598E124
:100CA0009093C10096E09093C2008093C400089591
:100CB0005058BB27AA270E9470060C94EA070E948E
:100CC000DC0738F00E94E30720F039F49F3F19F465
:100CD00026F40C94D9070EF4E095E7FB0C94D307A7
:100CE000E92F0E94FB0758F3BA17620773078407BE
:100CF000950720F079F4A6F50C941D080EF4E09504
:100D00000B2EBA2FA02D0B01B90190010C01CA01C5
:100D1000A0011124FF27591B99F0593F50F4503E70
:100D200068F11A16F040A22F232F342F4427585F62
:100D3000F3CF469537952795A795F0405395C9F77A
:100D40007EF41F16BA0B620B730B840BBAF0915032
:100D5000A1F0FF0FBB1F661F771F881FC2F70EC0D1
:100D6000BA0F621F731F841F48F4879577956795A4
:100D7000B795F7959E3F08F0B0CF9395880F08F090
:100D80009927EE0F9795879508950E94AF0708F46D
:100D900081E008950E94DE060C94EA070E94E307B2
:100DA00058F00E94DC0740F029F45F3F29F00C94D2
:100DB000D30751110C941E080C94D9070E94FB070D
:100DC00068F39923B1F3552391F3951B550BBB277A
:100DD000AA2762177307840738F09F5F5F4F220FBF
:100DE000331F441FAA1FA9F335D00E2E3AF0E0E8B6
:100DF00032D091505040E695001CCAF72BD0FE2F00
:100E000029D0660F771F881FBB1F26173707480793
:100E1000AB07B0E809F0BB0B802DBF01FF2793584B
:100E20005F4F3AF09E3F510578F00C94D3070C9435
:100E30001E085F3FE4F3983ED4F386957795679557
:100E4000B795F7959F5FC9F7880F911D9695879580
:100E500097F90895E1E0660F771F881FBB1F62179F
:100E600073078407BA0720F0621B730B840BBA0B5D
:100E7000EE1F88F7E09508950E9443076894B1112A
:100E80000C941E0808950E94030888F09F5798F05C
:100E9000B92F9927B751B0F0E1F0660F771F881F7F
:100EA000991F1AF0BA95C9F714C0B13091F00E9499
:100EB0001D08B1E008950C941D08672F782F88272E
:100EC000B85F39F0B93FCCF3869577956795B395C0
:100ED000D9F73EF490958095709561957F4F8F4F2F
:100EE0009F4F0895E89409C097FB3EF49095809534
:100EF000709561957F4F8F4F9F4F9923A9F0F92FE0
:100F000096E9BB279395F695879577956795B7955D
:100F1000F111F8CFFAF4BB0F11F460FF1BC06F5F43
:100F20007F4F8F4F9F4F16C0882311F096E911C055
:100F3000772321F09EE8872F762F05C0662371F076
:100F400096E8862F70E060E02AF09A95660F771F8A
:100F5000881FDAF7880F9695879597F90895990F66
:100F60000008550FAA0BE0E8FEEF16161706E80773
:100F7000F907C0F012161306E407F50798F0621B94
:100F8000730B840B950B39F40A2661F0232B242B69
:100F9000252B21F408950A2609F4A140A6958FEF88
:100FA000811D811D089597F99F6780E870E060E0DA
:100FB00008959FEF80EC089500240A9416161706F2
:100FC00018060906089500240A941216130614063A
:100FD00005060895092E0394000C11F4882352F09D
:100FE000BB0F40F4BF2B11F460FF04C06F5F7F4F55
:100FF0008F4F9F4F089557FD9058440F551F59F03C
:101000005F3F71F04795880F97FB991F61F09F3FF5
:1010100079F087950895121613061406551FF2CF1E
:101020004695F1DF08C0161617061806991FF1CF6E
:1010300086957105610508940895E894BB27662795
:101040007727CB0197F908950E94AF0708F48FEF37
:1010500008950E943C080C94EA070E94DC0738F0CF
:101060000E94E30720F0952311F00C94D3070C9411
:10107000D90711240C941E080E94FB0770F3959F5A
:10108000C1F3950F50E0551F629FF001729FBB277F
:10109000F00DB11D639FAA27F00DB11DAA1F649F1B
:1010A0006627B00DA11D661F829F2227B00DA11DCE
:1010B000621F739FB00DA11D621F839FA00D611D54
:1010C000221F749F3327A00D611D231F849F600D75
:1010D000211D822F762F6A2F11249F5750409AF09E
:1010E000F1F088234AF0EE0FFF1FBB1F661F771F2A
:1010F000881F91505040A9F79E3F510580F00C94F5
:10110000D3070C941E085F3FE4F3983ED4F3869512
:1011100077956795B795F795E7959F5FC1F7FE2B94
:10112000880F911D9695879597F9089597FB072E3F
:1011300016F4009407D077FD09D00E94AA0807FC96
:1011400005D03EF4909581959F4F089570956195D7
:101150007F4F0895AA1BBB1B51E107C0AA1FBB1FED
:10116000A617B70710F0A61BB70B881F991F5A9533
:10117000A9F780959095BC01CD010895BB274A3011
:1011800031F4992322F4BDE2909581959F4F0C9400
:10119000CA08BB27FB015527AA27880F991FAA1F3A
:1011A000A41710F0A41B83955051B9F7A05DAA3382
:1011B00008F0A95DA193009779F7B111B19311924D
:1011C000CB010C94E308DC01FC01672F71917723BC
:1011D000E1F7329704C07C916D9370836291AE17F2
:0A11E000BF07C8F30895F894FFCF8D
:1011EA00D7D7D7D7D7E7E7E7E7E7496E69746961E1
:1011FA006C697A696E672E2E2E0053797374656D49
:10120A0020696E697469616C697A65642E2E2E3B59
:10121A00006D74723A2020007372763A20005246AA
:0C122A003A2000543A2000202020000050
:00000001FF
